{"abi":[{"type":"constructor","inputs":[{"name":"name","type":"string","internalType":"string"}],"stateMutability":"nonpayable"},{"type":"function","name":"eip712Domain","inputs":[],"outputs":[{"name":"fields","type":"bytes1","internalType":"bytes1"},{"name":"name","type":"string","internalType":"string"},{"name":"version","type":"string","internalType":"string"},{"name":"chainId","type":"uint256","internalType":"uint256"},{"name":"verifyingContract","type":"address","internalType":"address"},{"name":"salt","type":"bytes32","internalType":"bytes32"},{"name":"extensions","type":"uint256[]","internalType":"uint256[]"}],"stateMutability":"view"},{"type":"function","name":"execute","inputs":[{"name":"request","type":"tuple","internalType":"struct ERC2771Forwarder.ForwardRequestData","components":[{"name":"from","type":"address","internalType":"address"},{"name":"to","type":"address","internalType":"address"},{"name":"value","type":"uint256","internalType":"uint256"},{"name":"gas","type":"uint256","internalType":"uint256"},{"name":"deadline","type":"uint48","internalType":"uint48"},{"name":"data","type":"bytes","internalType":"bytes"},{"name":"signature","type":"bytes","internalType":"bytes"}]}],"outputs":[],"stateMutability":"payable"},{"type":"function","name":"executeBatch","inputs":[{"name":"requests","type":"tuple[]","internalType":"struct ERC2771Forwarder.ForwardRequestData[]","components":[{"name":"from","type":"address","internalType":"address"},{"name":"to","type":"address","internalType":"address"},{"name":"value","type":"uint256","internalType":"uint256"},{"name":"gas","type":"uint256","internalType":"uint256"},{"name":"deadline","type":"uint48","internalType":"uint48"},{"name":"data","type":"bytes","internalType":"bytes"},{"name":"signature","type":"bytes","internalType":"bytes"}]},{"name":"refundReceiver","type":"address","internalType":"address payable"}],"outputs":[],"stateMutability":"payable"},{"type":"function","name":"nonces","inputs":[{"name":"owner","type":"address","internalType":"address"}],"outputs":[{"name":"","type":"uint256","internalType":"uint256"}],"stateMutability":"view"},{"type":"function","name":"verify","inputs":[{"name":"request","type":"tuple","internalType":"struct ERC2771Forwarder.ForwardRequestData","components":[{"name":"from","type":"address","internalType":"address"},{"name":"to","type":"address","internalType":"address"},{"name":"value","type":"uint256","internalType":"uint256"},{"name":"gas","type":"uint256","internalType":"uint256"},{"name":"deadline","type":"uint48","internalType":"uint48"},{"name":"data","type":"bytes","internalType":"bytes"},{"name":"signature","type":"bytes","internalType":"bytes"}]}],"outputs":[{"name":"","type":"bool","internalType":"bool"}],"stateMutability":"view"},{"type":"event","name":"EIP712DomainChanged","inputs":[],"anonymous":false},{"type":"event","name":"ExecutedForwardRequest","inputs":[{"name":"signer","type":"address","indexed":true,"internalType":"address"},{"name":"nonce","type":"uint256","indexed":false,"internalType":"uint256"},{"name":"success","type":"bool","indexed":false,"internalType":"bool"}],"anonymous":false},{"type":"error","name":"ERC2771ForwarderExpiredRequest","inputs":[{"name":"deadline","type":"uint48","internalType":"uint48"}]},{"type":"error","name":"ERC2771ForwarderInvalidSigner","inputs":[{"name":"signer","type":"address","internalType":"address"},{"name":"from","type":"address","internalType":"address"}]},{"type":"error","name":"ERC2771ForwarderMismatchedValue","inputs":[{"name":"requestedValue","type":"uint256","internalType":"uint256"},{"name":"msgValue","type":"uint256","internalType":"uint256"}]},{"type":"error","name":"ERC2771UntrustfulTarget","inputs":[{"name":"target","type":"address","internalType":"address"},{"name":"forwarder","type":"address","internalType":"address"}]},{"type":"error","name":"FailedCall","inputs":[]},{"type":"error","name":"InsufficientBalance","inputs":[{"name":"balance","type":"uint256","internalType":"uint256"},{"name":"needed","type":"uint256","internalType":"uint256"}]},{"type":"error","name":"InvalidAccountNonce","inputs":[{"name":"account","type":"address","internalType":"address"},{"name":"currentNonce","type":"uint256","internalType":"uint256"}]},{"type":"error","name":"InvalidShortString","inputs":[]},{"type":"error","name":"StringTooLong","inputs":[{"name":"str","type":"string","internalType":"string"}]}],"bytecode":{"object":"0x610160806040523461018957611299803803809161001d82856101a1565b8339810190602081830312610189578051906001600160401b03821161018957019080601f830112156101895781516001600160401b03811161018d5760405192610072601f8301601f1916602001856101a1565b81845260208401926020838301011161018957815f926020809301855e840101526040918251916100a384846101a1565b600183526020830191603160f81b83526100bc816101c4565b610120526100c98461035a565b61014052519020918260e05251902080610100524660a05282519060208201927f8b73c3c69bb8fe3d512ecc4cf759cc79239f7b179b0ffacaa9a75d522b39400f84528483015260608201524660808201523060a082015260a0815261013060c0826101a1565b5190206080523060c05251610e069081610493823960805181610c60015260a05181610d1d015260c05181610c2a015260e05181610caf01526101005181610cd5015261012051816105010152610140518161052a0152f35b5f80fd5b634e487b7160e01b5f52604160045260245ffd5b601f909101601f19168101906001600160401b0382119082101761018d57604052565b908151602081105f1461023e575090601f8151116101fe5760208151910151602082106101ef571790565b5f198260200360031b1b161790565b604460209160405192839163305a27a960e01b83528160048401528051918291826024860152018484015e5f828201840152601f01601f19168101030190fd5b6001600160401b03811161018d575f54600181811c91168015610350575b602082101461033c57601f811161030a575b50602092601f82116001146102ab57928192935f926102a0575b50508160011b915f199060031b1c1916175f5560ff90565b015190505f80610288565b601f198216935f8052805f20915f5b8681106102f257508360019596106102da575b505050811b015f5560ff90565b01515f1960f88460031b161c191690555f80806102cd565b919260206001819286850151815501940192016102ba565b5f8052601f60205f20910160051c810190601f830160051c015b818110610331575061026e565b5f8155600101610324565b634e487b7160e01b5f52602260045260245ffd5b90607f169061025c565b908151602081105f14610385575090601f8151116101fe5760208151910151602082106101ef571790565b6001600160401b03811161018d57600154600181811c91168015610488575b602082101461033c57601f8111610455575b50602092601f82116001146103f457928192935f926103e9575b50508160011b915f199060031b1c19161760015560ff90565b015190505f806103d0565b601f1982169360015f52805f20915f5b86811061043d5750836001959610610425575b505050811b0160015560ff90565b01515f1960f88460031b161c191690555f8080610417565b91926020600181928685015181550194019201610404565b60015f52601f60205f20910160051c810190601f830160051c015b81811061047d57506103b6565b5f8155600101610470565b90607f16906103a456fe60806040526004361015610011575f80fd5b5f3560e01c806319d8d38c146106275780637ecebe00146105e157806384b0196e146104e9578063ccf96b4a146102375763df905caf14610050575f80fd5b61005936610669565b604081013590813403610220575f9161007182610775565b92919082156101f05781156101ca57801561019c5782610194575b508161018c575b506100b2575b505050156100a357005b63d6bda27560e01b5f5260045ffd5b9091925060018060a01b031690815f5260026020525f8060408120928354936001850190556060860135956100e96020820161074e565b916101096101416014602061010160a0870187610972565b94909661074e565b9360405194818692848401998a378201906bffffffffffffffffffffffff199060601b16838201520301600b198101845201826106c1565b519288f192603f5a91041161018a5760407f842fb24a83793558587a3dab2be7674da4a51d09c5542d6dd354e5d0ea70813c9181519081528415156020820152a25f8080610099565bfe5b90505f610093565b91505f61008c565b836101a68761074e565b636422d02b60e11b5f9081526001600160a01b039283166004529116602452604490fd5b65ffffffffffff6101dd60808801610762565b634a777ac560e11b5f521660045260245ffd5b6101fc6020870161074e565b63d2650cd160e01b5f9081526001600160a01b039190911660045230602452604490fd5b506370647f7960e01b5f526004523460245260445ffd5b60403660031901126104e55760043567ffffffffffffffff81116104e557366023820112156104e55780600401359067ffffffffffffffff82116104e5576024810190602436918460051b0101116104e5576024356001600160a01b03811691908290036104e5578115925f915f945f925b80841061034657505050503481036103305750816102c357005b814710610319575f80809381935af13d15610311573d906102e3826109a5565b916102f160405193846106c1565b82523d5f602084013e5b1561030257005b8051156100a357602081519101fd5b6060906102fb565b504763cf47918160e01b5f5260045260245260445ffd5b6370647f7960e01b5f526004523460245260445ffd5b9091929361036390604061035b8785886106f7565b01359061072d565b9361036f8183866106f7565b5f908461037b82610775565b936104ab575b826104a3575b508161049b575b506103c3575b5050156103a7575b6001019291906102a9565b956103bb600191604061035b8a86896106f7565b96905061039c565b90915060018060a01b0316805f52600260205260405f208054906001820190555f8060608501359460406103f96020830161074e565b61040660a0840184610972565b610450601460206104198897959761074e565b938551948186928484019a8b378201906bffffffffffffffffffffffff199060601b16838201520301600b198101845201826106c1565b519301359088f192603f5a91041161018a5760407f842fb24a83793558587a3dab2be7674da4a51d09c5542d6dd354e5d0ea70813c9181519081528415156020820152a28880610394565b90508b61038e565b91508c610387565b82156104d95781156104c6578061038157836101a68661074e565b65ffffffffffff6101dd60808701610762565b6101fc6020860161074e565b5f80fd5b346104e5575f3660031901126104e5576105856105257f00000000000000000000000000000000000000000000000000000000000000006109f7565b61054e7f0000000000000000000000000000000000000000000000000000000000000000610b1d565b60206105936040519261056183856106c1565b5f84525f368137604051958695600f60f81b875260e08588015260e087019061069d565b90858203604087015261069d565b4660608501523060808501525f60a085015283810360c08501528180845192838152019301915f5b8281106105ca57505050500390f35b8351855286955093810193928101926001016105bb565b346104e55760203660031901126104e5576004356001600160a01b03811681036104e5576001600160a01b03165f90815260026020908152604090912054604051908152f35b346104e557602061063f61063a36610669565b610775565b509082610661575b5081610659575b506040519015158152f35b90508261064e565b915083610647565b60206003198201126104e5576004359067ffffffffffffffff82116104e55760e09082900360031901126104e55760040190565b805180835260209291819084018484015e5f828201840152601f01601f1916010190565b90601f8019910116810190811067ffffffffffffffff8211176106e357604052565b634e487b7160e01b5f52604160045260245ffd5b91908110156107195760051b8101359060de19813603018212156104e5570190565b634e487b7160e01b5f52603260045260245ffd5b9190820180921161073a57565b634e487b7160e01b5f52601160045260245ffd5b356001600160a01b03811681036104e55790565b3565ffffffffffff811681036104e55790565b9061077f8261074e565b60208301916108a360426107928561074e565b936107b961079f8861074e565b6001600160a01b03165f9081526002602052604090205490565b94608088019565ffffffffffff6107cf88610762565b6107e66107df60a08d018d610972565b36916109c1565b60208151910120926040519460208601967f7f96328b83274ebc7c1cf4f7a3abda602b51a78b7fa1d86a2ce353d75e587cac885260018060a01b0316604087015260018060a01b0316606086015260408c0135608086015260608c013560a086015260c08501521660e0830152610100820152610100815261086a610120826106c1565b519020610875610c27565b906040519161190160f01b8352600283015260228201522061089d6107df60c0880188610972565b90610bed565b50600481949294101561095e575f6108be602092159661074e565b6040518381019063572b6c0560e01b8252306024820152602481526108e46044826106c1565b51915afa903d5f519083610952575b5082610946575b5061090490610762565b948461091e575b509365ffffffffffff4291161015929190565b9093506001600160a01b03906109339061074e565b166001600160a01b03831614925f61090b565b151591506109046108fa565b6020111592505f6108f3565b634e487b7160e01b5f52602160045260245ffd5b903590601e19813603018212156104e5570180359067ffffffffffffffff82116104e5576020019181360383136104e557565b67ffffffffffffffff81116106e357601f01601f191660200190565b9291926109cd826109a5565b916109db60405193846106c1565b8294818452818301116104e5578281602093845f960137010152565b60ff8114610a3d5760ff811690601f8211610a2e5760405191610a1b6040846106c1565b6020808452838101919036833783525290565b632cd44ac360e21b5f5260045ffd5b506040515f5f548060011c9160018216918215610b13575b602084108314610aff578385528492908115610ae05750600114610a83575b610a80925003826106c1565b90565b505f80805290917f290decd9548b62a8d60345a988386fc84ba6bc95484008f6362f93160ef3e5635b818310610ac4575050906020610a8092820101610a74565b6020919350806001915483858801015201910190918392610aac565b60209250610a8094915060ff191682840152151560051b820101610a74565b634e487b7160e01b5f52602260045260245ffd5b92607f1692610a55565b60ff8114610b415760ff811690601f8211610a2e5760405191610a1b6040846106c1565b506040515f6001548060011c9160018216918215610be3575b602084108314610aff578385528492908115610ae05750600114610b8457610a80925003826106c1565b5060015f90815290917fb10e2d527612073b26eecdfd717e6a320cf44b4afac2b0732d9fcbe2b7fa0cf65b818310610bc7575050906020610a8092820101610a74565b6020919350806001915483858801015201910190918392610baf565b92607f1692610b5a565b8151919060418303610c1d57610c169250602082015190606060408401519301515f1a90610d43565b9192909190565b50505f9160029190565b307f00000000000000000000000000000000000000000000000000000000000000006001600160a01b03161480610d1a575b15610c82577f000000000000000000000000000000000000000000000000000000000000000090565b60405160208101907f8b73c3c69bb8fe3d512ecc4cf759cc79239f7b179b0ffacaa9a75d522b39400f82527f000000000000000000000000000000000000000000000000000000000000000060408201527f000000000000000000000000000000000000000000000000000000000000000060608201524660808201523060a082015260a08152610d1460c0826106c1565b51902090565b507f00000000000000000000000000000000000000000000000000000000000000004614610c59565b91907f7fffffffffffffffffffffffffffffff5d576e7357a4501ddfe92f46681b20a08411610dc5579160209360809260ff5f9560405194855216868401526040830152606082015282805260015afa15610dba575f516001600160a01b03811615610db057905f905f90565b505f906001905f90565b6040513d5f823e3d90fd5b5050505f916003919056fea26469706673582212200e7d2aa1e6fc651403b982b6ba25e42f5a7e0956675d280ff14a5f3313e29d0664736f6c634300081c0033","linkReferences":{}},"methodIdentifiers":{"eip712Domain()":"84b0196e","execute((address,address,uint256,uint256,uint48,bytes,bytes))":"df905caf","executeBatch((address,address,uint256,uint256,uint48,bytes,bytes)[],address)":"ccf96b4a","nonces(address)":"7ecebe00","verify((address,address,uint256,uint256,uint48,bytes,bytes))":"19d8d38c"},"id":23}