{"abi":[{"type":"constructor","inputs":[{"name":"name","type":"string","internalType":"string"},{"name":"symbol","type":"string","internalType":"string"}],"stateMutability":"nonpayable"},{"type":"function","name":"approve","inputs":[{"name":"to","type":"address","internalType":"address"},{"name":"tokenId","type":"uint256","internalType":"uint256"}],"outputs":[],"stateMutability":"nonpayable"},{"type":"function","name":"balanceOf","inputs":[{"name":"owner","type":"address","internalType":"address"}],"outputs":[{"name":"","type":"uint256","internalType":"uint256"}],"stateMutability":"view"},{"type":"function","name":"batchMintWithCode","inputs":[{"name":"eventId","type":"uint256","internalType":"uint256"},{"name":"codes","type":"string[]","internalType":"string[]"},{"name":"tokenURIs","type":"string[]","internalType":"string[]"}],"outputs":[],"stateMutability":"nonpayable"},{"type":"function","name":"claim","inputs":[{"name":"eventId","type":"uint256","internalType":"uint256"},{"name":"code","type":"string","internalType":"string"},{"name":"recipient","type":"address","internalType":"address"}],"outputs":[],"stateMutability":"nonpayable"},{"type":"function","name":"claimedCodes","inputs":[{"name":"","type":"uint256","internalType":"uint256"},{"name":"","type":"string","internalType":"string"}],"outputs":[{"name":"","type":"bool","internalType":"bool"}],"stateMutability":"view"},{"type":"function","name":"codeToTokenId","inputs":[{"name":"","type":"uint256","internalType":"uint256"},{"name":"","type":"string","internalType":"string"}],"outputs":[{"name":"","type":"uint256","internalType":"uint256"}],"stateMutability":"view"},{"type":"function","name":"currentEventId","inputs":[],"outputs":[{"name":"","type":"uint256","internalType":"uint256"}],"stateMutability":"view"},{"type":"function","name":"getApproved","inputs":[{"name":"tokenId","type":"uint256","internalType":"uint256"}],"outputs":[{"name":"","type":"address","internalType":"address"}],"stateMutability":"view"},{"type":"function","name":"isApprovedForAll","inputs":[{"name":"owner","type":"address","internalType":"address"},{"name":"operator","type":"address","internalType":"address"}],"outputs":[{"name":"","type":"bool","internalType":"bool"}],"stateMutability":"view"},{"type":"function","name":"name","inputs":[],"outputs":[{"name":"","type":"string","internalType":"string"}],"stateMutability":"view"},{"type":"function","name":"nextEventId","inputs":[],"outputs":[{"name":"","type":"uint256","internalType":"uint256"}],"stateMutability":"view"},{"type":"function","name":"nextTokenId","inputs":[],"outputs":[{"name":"","type":"uint256","internalType":"uint256"}],"stateMutability":"view"},{"type":"function","name":"owner","inputs":[],"outputs":[{"name":"","type":"address","internalType":"address"}],"stateMutability":"view"},{"type":"function","name":"ownerOf","inputs":[{"name":"tokenId","type":"uint256","internalType":"uint256"}],"outputs":[{"name":"","type":"address","internalType":"address"}],"stateMutability":"view"},{"type":"function","name":"renounceOwnership","inputs":[],"outputs":[],"stateMutability":"nonpayable"},{"type":"function","name":"safeTransferFrom","inputs":[{"name":"from","type":"address","internalType":"address"},{"name":"to","type":"address","internalType":"address"},{"name":"tokenId","type":"uint256","internalType":"uint256"}],"outputs":[],"stateMutability":"nonpayable"},{"type":"function","name":"safeTransferFrom","inputs":[{"name":"from","type":"address","internalType":"address"},{"name":"to","type":"address","internalType":"address"},{"name":"tokenId","type":"uint256","internalType":"uint256"},{"name":"data","type":"bytes","internalType":"bytes"}],"outputs":[],"stateMutability":"nonpayable"},{"type":"function","name":"setApprovalForAll","inputs":[{"name":"operator","type":"address","internalType":"address"},{"name":"approved","type":"bool","internalType":"bool"}],"outputs":[],"stateMutability":"nonpayable"},{"type":"function","name":"setTokenURI","inputs":[{"name":"tokenId","type":"uint256","internalType":"uint256"},{"name":"newTokenURI","type":"string","internalType":"string"}],"outputs":[],"stateMutability":"nonpayable"},{"type":"function","name":"supportsInterface","inputs":[{"name":"interfaceId","type":"bytes4","internalType":"bytes4"}],"outputs":[{"name":"","type":"bool","internalType":"bool"}],"stateMutability":"view"},{"type":"function","name":"symbol","inputs":[],"outputs":[{"name":"","type":"string","internalType":"string"}],"stateMutability":"view"},{"type":"function","name":"tokenToEvent","inputs":[{"name":"","type":"uint256","internalType":"uint256"}],"outputs":[{"name":"","type":"uint256","internalType":"uint256"}],"stateMutability":"view"},{"type":"function","name":"tokenURI","inputs":[{"name":"tokenId","type":"uint256","internalType":"uint256"}],"outputs":[{"name":"","type":"string","internalType":"string"}],"stateMutability":"view"},{"type":"function","name":"transferFrom","inputs":[{"name":"from","type":"address","internalType":"address"},{"name":"to","type":"address","internalType":"address"},{"name":"tokenId","type":"uint256","internalType":"uint256"}],"outputs":[],"stateMutability":"nonpayable"},{"type":"function","name":"transferOwnership","inputs":[{"name":"newOwner","type":"address","internalType":"address"}],"outputs":[],"stateMutability":"nonpayable"},{"type":"event","name":"Approval","inputs":[{"name":"owner","type":"address","indexed":true,"internalType":"address"},{"name":"approved","type":"address","indexed":true,"internalType":"address"},{"name":"tokenId","type":"uint256","indexed":true,"internalType":"uint256"}],"anonymous":false},{"type":"event","name":"ApprovalForAll","inputs":[{"name":"owner","type":"address","indexed":true,"internalType":"address"},{"name":"operator","type":"address","indexed":true,"internalType":"address"},{"name":"approved","type":"bool","indexed":false,"internalType":"bool"}],"anonymous":false},{"type":"event","name":"BatchMinter","inputs":[{"name":"evenId","type":"uint256","indexed":true,"internalType":"uint256"},{"name":"tokenIds","type":"uint256[]","indexed":false,"internalType":"uint256[]"},{"name":"codes","type":"string[]","indexed":false,"internalType":"string[]"}],"anonymous":false},{"type":"event","name":"NFTClaimed","inputs":[{"name":"eventId","type":"uint256","indexed":true,"internalType":"uint256"},{"name":"tokenId","type":"uint256","indexed":true,"internalType":"uint256"},{"name":"claimant","type":"address","indexed":true,"internalType":"address"},{"name":"code","type":"string","indexed":false,"internalType":"string"}],"anonymous":false},{"type":"event","name":"OwnershipTransferred","inputs":[{"name":"previousOwner","type":"address","indexed":true,"internalType":"address"},{"name":"newOwner","type":"address","indexed":true,"internalType":"address"}],"anonymous":false},{"type":"event","name":"Transfer","inputs":[{"name":"from","type":"address","indexed":true,"internalType":"address"},{"name":"to","type":"address","indexed":true,"internalType":"address"},{"name":"tokenId","type":"uint256","indexed":true,"internalType":"uint256"}],"anonymous":false},{"type":"error","name":"ERC721IncorrectOwner","inputs":[{"name":"sender","type":"address","internalType":"address"},{"name":"tokenId","type":"uint256","internalType":"uint256"},{"name":"owner","type":"address","internalType":"address"}]},{"type":"error","name":"ERC721InsufficientApproval","inputs":[{"name":"operator","type":"address","internalType":"address"},{"name":"tokenId","type":"uint256","internalType":"uint256"}]},{"type":"error","name":"ERC721InvalidApprover","inputs":[{"name":"approver","type":"address","internalType":"address"}]},{"type":"error","name":"ERC721InvalidOperator","inputs":[{"name":"operator","type":"address","internalType":"address"}]},{"type":"error","name":"ERC721InvalidOwner","inputs":[{"name":"owner","type":"address","internalType":"address"}]},{"type":"error","name":"ERC721InvalidReceiver","inputs":[{"name":"receiver","type":"address","internalType":"address"}]},{"type":"error","name":"ERC721InvalidSender","inputs":[{"name":"sender","type":"address","internalType":"address"}]},{"type":"error","name":"ERC721NonexistentToken","inputs":[{"name":"tokenId","type":"uint256","internalType":"uint256"}]},{"type":"error","name":"Minter__AlreadyClaimed","inputs":[]},{"type":"error","name":"Minter__AlreadyClaimedOnce","inputs":[]},{"type":"error","name":"Minter__ArrayLengthMismatch","inputs":[]},{"type":"error","name":"Minter__CodeAlreadyUsed","inputs":[]},{"type":"error","name":"Minter__EmptyArray","inputs":[]},{"type":"error","name":"Minter__InvalidCode","inputs":[]},{"type":"error","name":"OwnableInvalidOwner","inputs":[{"name":"owner","type":"address","internalType":"address"}]},{"type":"error","name":"OwnableUnauthorizedAccount","inputs":[{"name":"account","type":"address","internalType":"address"}]}],"bytecode":{"object":"0x608060405234801561000f575f5ffd5b506040516134d33803806134d3833981810160405281019061003191906102ec565b338282815f90816100429190610572565b5080600190816100529190610572565b5050505f73ffffffffffffffffffffffffffffffffffffffff168173ffffffffffffffffffffffffffffffffffffffff16036100c5575f6040517f1e4fbdf70000000000000000000000000000000000000000000000000000000081526004016100bc9190610680565b60405180910390fd5b6100d4816100dc60201b60201c565b505050610699565b5f60065f9054906101000a900473ffffffffffffffffffffffffffffffffffffffff1690508160065f6101000a81548173ffffffffffffffffffffffffffffffffffffffff021916908373ffffffffffffffffffffffffffffffffffffffff1602179055508173ffffffffffffffffffffffffffffffffffffffff168173ffffffffffffffffffffffffffffffffffffffff167f8be0079c531659141344cd1fd0a4f28419497f9722a3daafe3b4186f6b6457e060405160405180910390a35050565b5f604051905090565b5f5ffd5b5f5ffd5b5f5ffd5b5f5ffd5b5f601f19601f8301169050919050565b7f4e487b71000000000000000000000000000000000000000000000000000000005f52604160045260245ffd5b6101fe826101b8565b810181811067ffffffffffffffff8211171561021d5761021c6101c8565b5b80604052505050565b5f61022f61019f565b905061023b82826101f5565b919050565b5f67ffffffffffffffff82111561025a576102596101c8565b5b610263826101b8565b9050602081019050919050565b8281835e5f83830152505050565b5f61029061028b84610240565b610226565b9050828152602081018484840111156102ac576102ab6101b4565b5b6102b7848285610270565b509392505050565b5f82601f8301126102d3576102d26101b0565b5b81516102e384826020860161027e565b91505092915050565b5f5f60408385031215610302576103016101a8565b5b5f83015167ffffffffffffffff81111561031f5761031e6101ac565b5b61032b858286016102bf565b925050602083015167ffffffffffffffff81111561034c5761034b6101ac565b5b610358858286016102bf565b9150509250929050565b5f81519050919050565b7f4e487b71000000000000000000000000000000000000000000000000000000005f52602260045260245ffd5b5f60028204905060018216806103b057607f821691505b6020821081036103c3576103c261036c565b5b50919050565b5f819050815f5260205f209050919050565b5f6020601f8301049050919050565b5f82821b905092915050565b5f600883026104257fffffffffffffffffffffffffffffffffffffffffffffffffffffffffffffffff826103ea565b61042f86836103ea565b95508019841693508086168417925050509392505050565b5f819050919050565b5f819050919050565b5f61047361046e61046984610447565b610450565b610447565b9050919050565b5f819050919050565b61048c83610459565b6104a06104988261047a565b8484546103f6565b825550505050565b5f5f905090565b6104b76104a8565b6104c2818484610483565b505050565b5b818110156104e5576104da5f826104af565b6001810190506104c8565b5050565b601f82111561052a576104fb816103c9565b610504846103db565b81016020851015610513578190505b61052761051f856103db565b8301826104c7565b50505b505050565b5f82821c905092915050565b5f61054a5f198460080261052f565b1980831691505092915050565b5f610562838361053b565b9150826002028217905092915050565b61057b82610362565b67ffffffffffffffff811115610594576105936101c8565b5b61059e8254610399565b6105a98282856104e9565b5f60209050601f8311600181146105da575f84156105c8578287015190505b6105d28582610557565b865550610639565b601f1984166105e8866103c9565b5f5b8281101561060f578489015182556001820191506020850194506020810190506105ea565b8683101561062c5784890151610628601f89168261053b565b8355505b6001600288020188555050505b505050505050565b5f73ffffffffffffffffffffffffffffffffffffffff82169050919050565b5f61066a82610641565b9050919050565b61067a81610660565b82525050565b5f6020820190506106935f830184610671565b92915050565b612e2d806106a65f395ff3fe608060405234801561000f575f5ffd5b5060043610610171575f3560e01c8063715018a6116100dc578063a22cb46511610095578063cc9d70711161006f578063cc9d707114610433578063d5fb06f014610463578063e985e9c514610493578063f2fde38b146104c357610171565b8063a22cb465146103cb578063b88d4fde146103e7578063c87b56dd1461040357610171565b8063715018a61461031957806375794a3c1461032357806381f52b6e146103415780638da5cb5b1461037157806395d89b411461038f5780639f9d903a146103ad57610171565b8063162094c41161012e578063162094c41461024957806323b872dd1461026557806342842e0e146102815780634548ea7f1461029d5780636352211e146102b957806370a08231146102e957610171565b806301ffc9a71461017557806306fdde03146101a5578063081812fc146101c3578063091dbbd7146101f3578063095ea7b3146102115780630c8d23561461022d575b5f5ffd5b61018f600480360381019061018a9190611f45565b6104df565b60405161019c9190611f8a565b60405180910390f35b6101ad6105c0565b6040516101ba9190612013565b60405180910390f35b6101dd60048036038101906101d89190612066565b61064f565b6040516101ea91906120d0565b60405180910390f35b6101fb61066a565b60405161020891906120f8565b60405180910390f35b61022b6004803603810190610226919061213b565b610670565b005b61024760048036038101906102429190612387565b610686565b005b610263600480360381019061025e919061240f565b610980565b005b61027f600480360381019061027a9190612469565b6109b5565b005b61029b60048036038101906102969190612469565b610ab4565b005b6102b760048036038101906102b291906124b9565b610ad3565b005b6102d360048036038101906102ce9190612066565b610d36565b6040516102e091906120d0565b60405180910390f35b61030360048036038101906102fe9190612525565b610d47565b60405161031091906120f8565b60405180910390f35b610321610dfd565b005b61032b610e10565b60405161033891906120f8565b60405180910390f35b61035b6004803603810190610356919061240f565b610e16565b60405161036891906120f8565b60405180910390f35b610379610e4e565b60405161038691906120d0565b60405180910390f35b610397610e76565b6040516103a49190612013565b60405180910390f35b6103b5610f06565b6040516103c291906120f8565b60405180910390f35b6103e560048036038101906103e0919061257a565b610f0f565b005b61040160048036038101906103fc9190612656565b610f25565b005b61041d60048036038101906104189190612066565b610f4a565b60405161042a9190612013565b60405180910390f35b61044d60048036038101906104489190612066565b610ff5565b60405161045a91906120f8565b60405180910390f35b61047d6004803603810190610478919061240f565b61100a565b60405161048a9190611f8a565b60405180910390f35b6104ad60048036038101906104a891906126d6565b61104c565b6040516104ba9190611f8a565b60405180910390f35b6104dd60048036038101906104d89190612525565b6110da565b005b5f7f80ac58cd000000000000000000000000000000000000000000000000000000007bffffffffffffffffffffffffffffffffffffffffffffffffffffffff1916827bffffffffffffffffffffffffffffffffffffffffffffffffffffffff191614806105a957507f5b5e139f000000000000000000000000000000000000000000000000000000007bffffffffffffffffffffffffffffffffffffffffffffffffffffffff1916827bffffffffffffffffffffffffffffffffffffffffffffffffffffffff1916145b806105b957506105b88261115e565b5b9050919050565b60605f80546105ce90612741565b80601f01602080910402602001604051908101604052809291908181526020018280546105fa90612741565b80156106455780601f1061061c57610100808354040283529160200191610645565b820191905f5260205f20905b81548152906001019060200180831161062857829003601f168201915b5050505050905090565b5f610659826111c7565b506106638261124d565b9050919050565b600c5481565b610682828261067d611286565b61128d565b5050565b61068e61129f565b82600c8190555080518251146106d0576040517f743754f100000000000000000000000000000000000000000000000000000000815260040160405180910390fd5b5f82510361070a576040517f84643e6e00000000000000000000000000000000000000000000000000000000815260040160405180910390fd5b5f825167ffffffffffffffff8111156107265761072561217d565b5b6040519080825280602002602001820160405280156107545781602001602082028036833780820191505090505b5090505f5f90505b835181101561093f5760075f8681526020019081526020015f2084828151811061078957610788612771565b5b602002602001015160405161079e91906127d8565b90815260200160405180910390205f9054906101000a900460ff16156107f0576040517f63ff151a00000000000000000000000000000000000000000000000000000000815260040160405180910390fd5b5f600d5490506108003082611326565b83828151811061081357610812612771565b5b602002602001015160085f8381526020019081526020015f209081610838919061298e565b50600160075f8881526020019081526020015f2086848151811061085f5761085e612771565b5b602002602001015160405161087491906127d8565b90815260200160405180910390205f6101000a81548160ff0219169083151502179055508060095f8881526020019081526020015f208684815181106108bd576108bc612771565b5b60200260200101516040516108d291906127d8565b90815260200160405180910390208190555085600a5f8381526020019081526020015f20819055508083838151811061090e5761090d612771565b5b602002602001018181525050600d5f81548092919061092c90612a8a565b919050555050808060010191505061075c565b50837feec157971218834ab33775c76ca45aad7584e9b9520169d4b0ce2d20805debd98285604051610972929190612c8b565b60405180910390a250505050565b61098861129f565b610991826111c7565b508060085f8481526020019081526020015f2090816109b0919061298e565b505050565b5f73ffffffffffffffffffffffffffffffffffffffff168273ffffffffffffffffffffffffffffffffffffffff1603610a25575f6040517f64a0ae92000000000000000000000000000000000000000000000000000000008152600401610a1c91906120d0565b60405180910390fd5b5f610a388383610a33611286565b611419565b90508373ffffffffffffffffffffffffffffffffffffffff168173ffffffffffffffffffffffffffffffffffffffff1614610aae578382826040517f64283d7b000000000000000000000000000000000000000000000000000000008152600401610aa593929190612cc0565b60405180910390fd5b50505050565b610ace83838360405180602001604052805f815250610f25565b505050565b60075f8481526020019081526020015f2082604051610af291906127d8565b90815260200160405180910390205f9054906101000a900460ff16610b43576040517fb8b09e4800000000000000000000000000000000000000000000000000000000815260040160405180910390fd5b600b5f8481526020019081526020015f205f8273ffffffffffffffffffffffffffffffffffffffff1673ffffffffffffffffffffffffffffffffffffffff1681526020019081526020015f205f9054906101000a900460ff1615610bd3576040517fa543571300000000000000000000000000000000000000000000000000000000815260040160405180910390fd5b5f60095f8581526020019081526020015f2083604051610bf391906127d8565b90815260200160405180910390205490503073ffffffffffffffffffffffffffffffffffffffff16610c2482610d36565b73ffffffffffffffffffffffffffffffffffffffff1614610c71576040517f71536d1e00000000000000000000000000000000000000000000000000000000815260040160405180910390fd5b6001600b5f8681526020019081526020015f205f8473ffffffffffffffffffffffffffffffffffffffff1673ffffffffffffffffffffffffffffffffffffffff1681526020019081526020015f205f6101000a81548160ff021916908315150217905550610ce0308383611624565b8173ffffffffffffffffffffffffffffffffffffffff1681857f654aa403f69580cbba8c880967455fdc187adb40cf6dbfb0b2ee6ecbefe158c686604051610d289190612013565b60405180910390a450505050565b5f610d40826111c7565b9050919050565b5f5f73ffffffffffffffffffffffffffffffffffffffff168273ffffffffffffffffffffffffffffffffffffffff1603610db8575f6040517f89c62b64000000000000000000000000000000000000000000000000000000008152600401610daf91906120d0565b60405180910390fd5b60035f8373ffffffffffffffffffffffffffffffffffffffff1673ffffffffffffffffffffffffffffffffffffffff1681526020019081526020015f20549050919050565b610e0561129f565b610e0e5f61178c565b565b600d5481565b6009602052815f5260405f20818051602081018201805184825260208301602085012081835280955050505050505f91509150505481565b5f60065f9054906101000a900473ffffffffffffffffffffffffffffffffffffffff16905090565b606060018054610e8590612741565b80601f0160208091040260200160405190810160405280929190818152602001828054610eb190612741565b8015610efc5780601f10610ed357610100808354040283529160200191610efc565b820191905f5260205f20905b815481529060010190602001808311610edf57829003601f168201915b5050505050905090565b5f600c54905090565b610f21610f1a611286565b838361184f565b5050565b610f308484846109b5565b610f44610f3b611286565b858585856119b8565b50505050565b6060610f55826111c7565b5060085f8381526020019081526020015f208054610f7290612741565b80601f0160208091040260200160405190810160405280929190818152602001828054610f9e90612741565b8015610fe95780601f10610fc057610100808354040283529160200191610fe9565b820191905f5260205f20905b815481529060010190602001808311610fcc57829003601f168201915b50505050509050919050565b600a602052805f5260405f205f915090505481565b6007602052815f5260405f20818051602081018201805184825260208301602085012081835280955050505050505f915091509054906101000a900460ff1681565b5f60055f8473ffffffffffffffffffffffffffffffffffffffff1673ffffffffffffffffffffffffffffffffffffffff1681526020019081526020015f205f8373ffffffffffffffffffffffffffffffffffffffff1673ffffffffffffffffffffffffffffffffffffffff1681526020019081526020015f205f9054906101000a900460ff16905092915050565b6110e261129f565b5f73ffffffffffffffffffffffffffffffffffffffff168173ffffffffffffffffffffffffffffffffffffffff1603611152575f6040517f1e4fbdf700000000000000000000000000000000000000000000000000000000815260040161114991906120d0565b60405180910390fd5b61115b8161178c565b50565b5f7f01ffc9a7000000000000000000000000000000000000000000000000000000007bffffffffffffffffffffffffffffffffffffffffffffffffffffffff1916827bffffffffffffffffffffffffffffffffffffffffffffffffffffffff1916149050919050565b5f5f6111d283611b64565b90505f73ffffffffffffffffffffffffffffffffffffffff168173ffffffffffffffffffffffffffffffffffffffff160361124457826040517f7e27328900000000000000000000000000000000000000000000000000000000815260040161123b91906120f8565b60405180910390fd5b80915050919050565b5f60045f8381526020019081526020015f205f9054906101000a900473ffffffffffffffffffffffffffffffffffffffff169050919050565b5f33905090565b61129a8383836001611b9d565b505050565b6112a7611286565b73ffffffffffffffffffffffffffffffffffffffff166112c5610e4e565b73ffffffffffffffffffffffffffffffffffffffff1614611324576112e8611286565b6040517f118cdaa700000000000000000000000000000000000000000000000000000000815260040161131b91906120d0565b60405180910390fd5b565b5f73ffffffffffffffffffffffffffffffffffffffff168273ffffffffffffffffffffffffffffffffffffffff1603611396575f6040517f64a0ae9200000000000000000000000000000000000000000000000000000000815260040161138d91906120d0565b60405180910390fd5b5f6113a283835f611419565b90505f73ffffffffffffffffffffffffffffffffffffffff168173ffffffffffffffffffffffffffffffffffffffff1614611414575f6040517f73c6ac6e00000000000000000000000000000000000000000000000000000000815260040161140b91906120d0565b60405180910390fd5b505050565b5f5f61142484611b64565b90505f73ffffffffffffffffffffffffffffffffffffffff168373ffffffffffffffffffffffffffffffffffffffff161461146557611464818486611d5c565b5b5f73ffffffffffffffffffffffffffffffffffffffff168173ffffffffffffffffffffffffffffffffffffffff16146114f0576114a45f855f5f611b9d565b600160035f8373ffffffffffffffffffffffffffffffffffffffff1673ffffffffffffffffffffffffffffffffffffffff1681526020019081526020015f205f82825403925050819055505b5f73ffffffffffffffffffffffffffffffffffffffff168573ffffffffffffffffffffffffffffffffffffffff161461156f57600160035f8773ffffffffffffffffffffffffffffffffffffffff1673ffffffffffffffffffffffffffffffffffffffff1681526020019081526020015f205f82825401925050819055505b8460025f8681526020019081526020015f205f6101000a81548173ffffffffffffffffffffffffffffffffffffffff021916908373ffffffffffffffffffffffffffffffffffffffff160217905550838573ffffffffffffffffffffffffffffffffffffffff168273ffffffffffffffffffffffffffffffffffffffff167fddf252ad1be2c89b69c2b068fc378daa952ba7f163c4a11628f55a4df523b3ef60405160405180910390a4809150509392505050565b5f73ffffffffffffffffffffffffffffffffffffffff168273ffffffffffffffffffffffffffffffffffffffff1603611694575f6040517f64a0ae9200000000000000000000000000000000000000000000000000000000815260040161168b91906120d0565b60405180910390fd5b5f6116a083835f611419565b90505f73ffffffffffffffffffffffffffffffffffffffff168173ffffffffffffffffffffffffffffffffffffffff160361171257816040517f7e27328900000000000000000000000000000000000000000000000000000000815260040161170991906120f8565b60405180910390fd5b8373ffffffffffffffffffffffffffffffffffffffff168173ffffffffffffffffffffffffffffffffffffffff1614611786578382826040517f64283d7b00000000000000000000000000000000000000000000000000000000815260040161177d93929190612cc0565b60405180910390fd5b50505050565b5f60065f9054906101000a900473ffffffffffffffffffffffffffffffffffffffff1690508160065f6101000a81548173ffffffffffffffffffffffffffffffffffffffff021916908373ffffffffffffffffffffffffffffffffffffffff1602179055508173ffffffffffffffffffffffffffffffffffffffff168173ffffffffffffffffffffffffffffffffffffffff167f8be0079c531659141344cd1fd0a4f28419497f9722a3daafe3b4186f6b6457e060405160405180910390a35050565b5f73ffffffffffffffffffffffffffffffffffffffff168273ffffffffffffffffffffffffffffffffffffffff16036118bf57816040517f5b08ba180000000000000000000000000000000000000000000000000000000081526004016118b691906120d0565b60405180910390fd5b8060055f8573ffffffffffffffffffffffffffffffffffffffff1673ffffffffffffffffffffffffffffffffffffffff1681526020019081526020015f205f8473ffffffffffffffffffffffffffffffffffffffff1673ffffffffffffffffffffffffffffffffffffffff1681526020019081526020015f205f6101000a81548160ff0219169083151502179055508173ffffffffffffffffffffffffffffffffffffffff168373ffffffffffffffffffffffffffffffffffffffff167f17307eab39ab6107e8899845ad3d59bd9653f200f220920489ca2b5937696c31836040516119ab9190611f8a565b60405180910390a3505050565b5f8373ffffffffffffffffffffffffffffffffffffffff163b1115611b5d578273ffffffffffffffffffffffffffffffffffffffff1663150b7a02868685856040518563ffffffff1660e01b8152600401611a169493929190612d47565b6020604051808303815f875af1925050508015611a5157506040513d601f19601f82011682018060405250810190611a4e9190612da5565b60015b611ad2573d805f8114611a7f576040519150601f19603f3d011682016040523d82523d5f602084013e611a84565b606091505b505f815103611aca57836040517f64a0ae92000000000000000000000000000000000000000000000000000000008152600401611ac191906120d0565b60405180910390fd5b805160208201fd5b63150b7a0260e01b7bffffffffffffffffffffffffffffffffffffffffffffffffffffffff1916817bffffffffffffffffffffffffffffffffffffffffffffffffffffffff191614611b5b57836040517f64a0ae92000000000000000000000000000000000000000000000000000000008152600401611b5291906120d0565b60405180910390fd5b505b5050505050565b5f60025f8381526020019081526020015f205f9054906101000a900473ffffffffffffffffffffffffffffffffffffffff169050919050565b8080611bd557505f73ffffffffffffffffffffffffffffffffffffffff168273ffffffffffffffffffffffffffffffffffffffff1614155b15611d07575f611be4846111c7565b90505f73ffffffffffffffffffffffffffffffffffffffff168373ffffffffffffffffffffffffffffffffffffffff1614158015611c4e57508273ffffffffffffffffffffffffffffffffffffffff168173ffffffffffffffffffffffffffffffffffffffff1614155b8015611c615750611c5f818461104c565b155b15611ca357826040517fa9fbf51f000000000000000000000000000000000000000000000000000000008152600401611c9a91906120d0565b60405180910390fd5b8115611d0557838573ffffffffffffffffffffffffffffffffffffffff168273ffffffffffffffffffffffffffffffffffffffff167f8c5be1e5ebec7d5bd14f71427d1e84f3dd0314c0f7b2291e5b200ac8c7c3b92560405160405180910390a45b505b8360045f8581526020019081526020015f205f6101000a81548173ffffffffffffffffffffffffffffffffffffffff021916908373ffffffffffffffffffffffffffffffffffffffff16021790555050505050565b611d67838383611e1f565b611e1a575f73ffffffffffffffffffffffffffffffffffffffff168373ffffffffffffffffffffffffffffffffffffffff1603611ddb57806040517f7e273289000000000000000000000000000000000000000000000000000000008152600401611dd291906120f8565b60405180910390fd5b81816040517f177e802f000000000000000000000000000000000000000000000000000000008152600401611e11929190612dd0565b60405180910390fd5b505050565b5f5f73ffffffffffffffffffffffffffffffffffffffff168373ffffffffffffffffffffffffffffffffffffffff1614158015611ed657508273ffffffffffffffffffffffffffffffffffffffff168473ffffffffffffffffffffffffffffffffffffffff161480611e975750611e96848461104c565b5b80611ed557508273ffffffffffffffffffffffffffffffffffffffff16611ebd8361124d565b73ffffffffffffffffffffffffffffffffffffffff16145b5b90509392505050565b5f604051905090565b5f5ffd5b5f5ffd5b5f7fffffffff0000000000000000000000000000000000000000000000000000000082169050919050565b611f2481611ef0565b8114611f2e575f5ffd5b50565b5f81359050611f3f81611f1b565b92915050565b5f60208284031215611f5a57611f59611ee8565b5b5f611f6784828501611f31565b91505092915050565b5f8115159050919050565b611f8481611f70565b82525050565b5f602082019050611f9d5f830184611f7b565b92915050565b5f81519050919050565b5f82825260208201905092915050565b8281835e5f83830152505050565b5f601f19601f8301169050919050565b5f611fe582611fa3565b611fef8185611fad565b9350611fff818560208601611fbd565b61200881611fcb565b840191505092915050565b5f6020820190508181035f83015261202b8184611fdb565b905092915050565b5f819050919050565b61204581612033565b811461204f575f5ffd5b50565b5f813590506120608161203c565b92915050565b5f6020828403121561207b5761207a611ee8565b5b5f61208884828501612052565b91505092915050565b5f73ffffffffffffffffffffffffffffffffffffffff82169050919050565b5f6120ba82612091565b9050919050565b6120ca816120b0565b82525050565b5f6020820190506120e35f8301846120c1565b92915050565b6120f281612033565b82525050565b5f60208201905061210b5f8301846120e9565b92915050565b61211a816120b0565b8114612124575f5ffd5b50565b5f8135905061213581612111565b92915050565b5f5f6040838503121561215157612150611ee8565b5b5f61215e85828601612127565b925050602061216f85828601612052565b9150509250929050565b5f5ffd5b7f4e487b71000000000000000000000000000000000000000000000000000000005f52604160045260245ffd5b6121b382611fcb565b810181811067ffffffffffffffff821117156121d2576121d161217d565b5b80604052505050565b5f6121e4611edf565b90506121f082826121aa565b919050565b5f67ffffffffffffffff82111561220f5761220e61217d565b5b602082029050602081019050919050565b5f5ffd5b5f5ffd5b5f67ffffffffffffffff8211156122425761224161217d565b5b61224b82611fcb565b9050602081019050919050565b828183375f83830152505050565b5f61227861227384612228565b6121db565b90508281526020810184848401111561229457612293612224565b5b61229f848285612258565b509392505050565b5f82601f8301126122bb576122ba612179565b5b81356122cb848260208601612266565b91505092915050565b5f6122e66122e1846121f5565b6121db565b9050808382526020820190506020840283018581111561230957612308612220565b5b835b8181101561235057803567ffffffffffffffff81111561232e5761232d612179565b5b80860161233b89826122a7565b8552602085019450505060208101905061230b565b5050509392505050565b5f82601f83011261236e5761236d612179565b5b813561237e8482602086016122d4565b91505092915050565b5f5f5f6060848603121561239e5761239d611ee8565b5b5f6123ab86828701612052565b935050602084013567ffffffffffffffff8111156123cc576123cb611eec565b5b6123d88682870161235a565b925050604084013567ffffffffffffffff8111156123f9576123f8611eec565b5b6124058682870161235a565b9150509250925092565b5f5f6040838503121561242557612424611ee8565b5b5f61243285828601612052565b925050602083013567ffffffffffffffff81111561245357612452611eec565b5b61245f858286016122a7565b9150509250929050565b5f5f5f606084860312156124805761247f611ee8565b5b5f61248d86828701612127565b935050602061249e86828701612127565b92505060406124af86828701612052565b9150509250925092565b5f5f5f606084860312156124d0576124cf611ee8565b5b5f6124dd86828701612052565b935050602084013567ffffffffffffffff8111156124fe576124fd611eec565b5b61250a868287016122a7565b925050604061251b86828701612127565b9150509250925092565b5f6020828403121561253a57612539611ee8565b5b5f61254784828501612127565b91505092915050565b61255981611f70565b8114612563575f5ffd5b50565b5f8135905061257481612550565b92915050565b5f5f604083850312156125905761258f611ee8565b5b5f61259d85828601612127565b92505060206125ae85828601612566565b9150509250929050565b5f67ffffffffffffffff8211156125d2576125d161217d565b5b6125db82611fcb565b9050602081019050919050565b5f6125fa6125f5846125b8565b6121db565b90508281526020810184848401111561261657612615612224565b5b612621848285612258565b509392505050565b5f82601f83011261263d5761263c612179565b5b813561264d8482602086016125e8565b91505092915050565b5f5f5f5f6080858703121561266e5761266d611ee8565b5b5f61267b87828801612127565b945050602061268c87828801612127565b935050604061269d87828801612052565b925050606085013567ffffffffffffffff8111156126be576126bd611eec565b5b6126ca87828801612629565b91505092959194509250565b5f5f604083850312156126ec576126eb611ee8565b5b5f6126f985828601612127565b925050602061270a85828601612127565b9150509250929050565b7f4e487b71000000000000000000000000000000000000000000000000000000005f52602260045260245ffd5b5f600282049050600182168061275857607f821691505b60208210810361276b5761276a612714565b5b50919050565b7f4e487b71000000000000000000000000000000000000000000000000000000005f52603260045260245ffd5b5f81905092915050565b5f6127b282611fa3565b6127bc818561279e565b93506127cc818560208601611fbd565b80840191505092915050565b5f6127e382846127a8565b915081905092915050565b5f819050815f5260205f209050919050565b5f6020601f8301049050919050565b5f82821b905092915050565b5f6008830261284a7fffffffffffffffffffffffffffffffffffffffffffffffffffffffffffffffff8261280f565b612854868361280f565b95508019841693508086168417925050509392505050565b5f819050919050565b5f61288f61288a61288584612033565b61286c565b612033565b9050919050565b5f819050919050565b6128a883612875565b6128bc6128b482612896565b84845461281b565b825550505050565b5f5f905090565b6128d36128c4565b6128de81848461289f565b505050565b5b81811015612901576128f65f826128cb565b6001810190506128e4565b5050565b601f82111561294657612917816127ee565b61292084612800565b8101602085101561292f578190505b61294361293b85612800565b8301826128e3565b50505b505050565b5f82821c905092915050565b5f6129665f198460080261294b565b1980831691505092915050565b5f61297e8383612957565b9150826002028217905092915050565b61299782611fa3565b67ffffffffffffffff8111156129b0576129af61217d565b5b6129ba8254612741565b6129c5828285612905565b5f60209050601f8311600181146129f6575f84156129e4578287015190505b6129ee8582612973565b865550612a55565b601f198416612a04866127ee565b5f5b82811015612a2b57848901518255600182019150602085019450602081019050612a06565b86831015612a485784890151612a44601f891682612957565b8355505b6001600288020188555050505b505050505050565b7f4e487b71000000000000000000000000000000000000000000000000000000005f52601160045260245ffd5b5f612a9482612033565b91507fffffffffffffffffffffffffffffffffffffffffffffffffffffffffffffffff8203612ac657612ac5612a5d565b5b600182019050919050565b5f81519050919050565b5f82825260208201905092915050565b5f819050602082019050919050565b612b0381612033565b82525050565b5f612b148383612afa565b60208301905092915050565b5f602082019050919050565b5f612b3682612ad1565b612b408185612adb565b9350612b4b83612aeb565b805f5b83811015612b7b578151612b628882612b09565b9750612b6d83612b20565b925050600181019050612b4e565b5085935050505092915050565b5f81519050919050565b5f82825260208201905092915050565b5f819050602082019050919050565b5f82825260208201905092915050565b5f612bcb82611fa3565b612bd58185612bb1565b9350612be5818560208601611fbd565b612bee81611fcb565b840191505092915050565b5f612c048383612bc1565b905092915050565b5f602082019050919050565b5f612c2282612b88565b612c2c8185612b92565b935083602082028501612c3e85612ba2565b805f5b85811015612c795784840389528151612c5a8582612bf9565b9450612c6583612c0c565b925060208a01995050600181019050612c41565b50829750879550505050505092915050565b5f6040820190508181035f830152612ca38185612b2c565b90508181036020830152612cb78184612c18565b90509392505050565b5f606082019050612cd35f8301866120c1565b612ce060208301856120e9565b612ced60408301846120c1565b949350505050565b5f81519050919050565b5f82825260208201905092915050565b5f612d1982612cf5565b612d238185612cff565b9350612d33818560208601611fbd565b612d3c81611fcb565b840191505092915050565b5f608082019050612d5a5f8301876120c1565b612d6760208301866120c1565b612d7460408301856120e9565b8181036060830152612d868184612d0f565b905095945050505050565b5f81519050612d9f81611f1b565b92915050565b5f60208284031215612dba57612db9611ee8565b5b5f612dc784828501612d91565b91505092915050565b5f604082019050612de35f8301856120c1565b612df060208301846120e9565b939250505056fea26469706673582212200ca9d9d0118397bb8ce15bd815fab22557bf12cd13b2426914ee84fd8d29da3464736f6c634300081c0033","linkReferences":{}},"methodIdentifiers":{"approve(address,uint256)":"095ea7b3","balanceOf(address)":"70a08231","batchMintWithCode(uint256,string[],string[])":"0c8d2356","claim(uint256,string,address)":"4548ea7f","claimedCodes(uint256,string)":"d5fb06f0","codeToTokenId(uint256,string)":"81f52b6e","currentEventId()":"091dbbd7","getApproved(uint256)":"081812fc","isApprovedForAll(address,address)":"e985e9c5","name()":"06fdde03","nextEventId()":"9f9d903a","nextTokenId()":"75794a3c","owner()":"8da5cb5b","ownerOf(uint256)":"6352211e","renounceOwnership()":"715018a6","safeTransferFrom(address,address,uint256)":"42842e0e","safeTransferFrom(address,address,uint256,bytes)":"b88d4fde","setApprovalForAll(address,bool)":"a22cb465","setTokenURI(uint256,string)":"162094c4","supportsInterface(bytes4)":"01ffc9a7","symbol()":"95d89b41","tokenToEvent(uint256)":"cc9d7071","tokenURI(uint256)":"c87b56dd","transferFrom(address,address,uint256)":"23b872dd","transferOwnership(address)":"f2fde38b"},"id":31}