{"abi":[{"type":"constructor","inputs":[{"name":"name","type":"string","internalType":"string"},{"name":"symbol","type":"string","internalType":"string"}],"stateMutability":"nonpayable"},{"type":"function","name":"approve","inputs":[{"name":"to","type":"address","internalType":"address"},{"name":"tokenId","type":"uint256","internalType":"uint256"}],"outputs":[],"stateMutability":"nonpayable"},{"type":"function","name":"balanceOf","inputs":[{"name":"owner","type":"address","internalType":"address"}],"outputs":[{"name":"","type":"uint256","internalType":"uint256"}],"stateMutability":"view"},{"type":"function","name":"batchMintWithCode","inputs":[{"name":"eventId","type":"uint256","internalType":"uint256"},{"name":"codes","type":"string[]","internalType":"string[]"},{"name":"tokenURIs","type":"string[]","internalType":"string[]"}],"outputs":[],"stateMutability":"nonpayable"},{"type":"function","name":"claim","inputs":[{"name":"eventId","type":"uint256","internalType":"uint256"},{"name":"code","type":"string","internalType":"string"},{"name":"recipient","type":"address","internalType":"address"}],"outputs":[],"stateMutability":"nonpayable"},{"type":"function","name":"claimedCodes","inputs":[{"name":"","type":"uint256","internalType":"uint256"},{"name":"","type":"string","internalType":"string"}],"outputs":[{"name":"","type":"bool","internalType":"bool"}],"stateMutability":"view"},{"type":"function","name":"codeToTokenId","inputs":[{"name":"","type":"uint256","internalType":"uint256"},{"name":"","type":"string","internalType":"string"}],"outputs":[{"name":"","type":"uint256","internalType":"uint256"}],"stateMutability":"view"},{"type":"function","name":"currentEventId","inputs":[],"outputs":[{"name":"","type":"uint256","internalType":"uint256"}],"stateMutability":"view"},{"type":"function","name":"getApproved","inputs":[{"name":"tokenId","type":"uint256","internalType":"uint256"}],"outputs":[{"name":"","type":"address","internalType":"address"}],"stateMutability":"view"},{"type":"function","name":"isApprovedForAll","inputs":[{"name":"owner","type":"address","internalType":"address"},{"name":"operator","type":"address","internalType":"address"}],"outputs":[{"name":"","type":"bool","internalType":"bool"}],"stateMutability":"view"},{"type":"function","name":"name","inputs":[],"outputs":[{"name":"","type":"string","internalType":"string"}],"stateMutability":"view"},{"type":"function","name":"nextEventId","inputs":[],"outputs":[{"name":"","type":"uint256","internalType":"uint256"}],"stateMutability":"view"},{"type":"function","name":"nextTokenId","inputs":[],"outputs":[{"name":"","type":"uint256","internalType":"uint256"}],"stateMutability":"view"},{"type":"function","name":"owner","inputs":[],"outputs":[{"name":"","type":"address","internalType":"address"}],"stateMutability":"view"},{"type":"function","name":"ownerOf","inputs":[{"name":"tokenId","type":"uint256","internalType":"uint256"}],"outputs":[{"name":"","type":"address","internalType":"address"}],"stateMutability":"view"},{"type":"function","name":"renounceOwnership","inputs":[],"outputs":[],"stateMutability":"nonpayable"},{"type":"function","name":"safeTransferFrom","inputs":[{"name":"from","type":"address","internalType":"address"},{"name":"to","type":"address","internalType":"address"},{"name":"tokenId","type":"uint256","internalType":"uint256"}],"outputs":[],"stateMutability":"nonpayable"},{"type":"function","name":"safeTransferFrom","inputs":[{"name":"from","type":"address","internalType":"address"},{"name":"to","type":"address","internalType":"address"},{"name":"tokenId","type":"uint256","internalType":"uint256"},{"name":"data","type":"bytes","internalType":"bytes"}],"outputs":[],"stateMutability":"nonpayable"},{"type":"function","name":"setApprovalForAll","inputs":[{"name":"operator","type":"address","internalType":"address"},{"name":"approved","type":"bool","internalType":"bool"}],"outputs":[],"stateMutability":"nonpayable"},{"type":"function","name":"setTokenURI","inputs":[{"name":"tokenId","type":"uint256","internalType":"uint256"},{"name":"newTokenURI","type":"string","internalType":"string"}],"outputs":[],"stateMutability":"nonpayable"},{"type":"function","name":"supportsInterface","inputs":[{"name":"interfaceId","type":"bytes4","internalType":"bytes4"}],"outputs":[{"name":"","type":"bool","internalType":"bool"}],"stateMutability":"view"},{"type":"function","name":"symbol","inputs":[],"outputs":[{"name":"","type":"string","internalType":"string"}],"stateMutability":"view"},{"type":"function","name":"tokenToEvent","inputs":[{"name":"","type":"uint256","internalType":"uint256"}],"outputs":[{"name":"","type":"uint256","internalType":"uint256"}],"stateMutability":"view"},{"type":"function","name":"tokenURI","inputs":[{"name":"tokenId","type":"uint256","internalType":"uint256"}],"outputs":[{"name":"","type":"string","internalType":"string"}],"stateMutability":"view"},{"type":"function","name":"transferFrom","inputs":[{"name":"from","type":"address","internalType":"address"},{"name":"to","type":"address","internalType":"address"},{"name":"tokenId","type":"uint256","internalType":"uint256"}],"outputs":[],"stateMutability":"nonpayable"},{"type":"function","name":"transferOwnership","inputs":[{"name":"newOwner","type":"address","internalType":"address"}],"outputs":[],"stateMutability":"nonpayable"},{"type":"event","name":"Approval","inputs":[{"name":"owner","type":"address","indexed":true,"internalType":"address"},{"name":"approved","type":"address","indexed":true,"internalType":"address"},{"name":"tokenId","type":"uint256","indexed":true,"internalType":"uint256"}],"anonymous":false},{"type":"event","name":"ApprovalForAll","inputs":[{"name":"owner","type":"address","indexed":true,"internalType":"address"},{"name":"operator","type":"address","indexed":true,"internalType":"address"},{"name":"approved","type":"bool","indexed":false,"internalType":"bool"}],"anonymous":false},{"type":"event","name":"BatchMinter","inputs":[{"name":"evenId","type":"uint256","indexed":true,"internalType":"uint256"},{"name":"tokenIds","type":"uint256[]","indexed":false,"internalType":"uint256[]"},{"name":"codes","type":"string[]","indexed":false,"internalType":"string[]"}],"anonymous":false},{"type":"event","name":"NFTClaimed","inputs":[{"name":"eventId","type":"uint256","indexed":true,"internalType":"uint256"},{"name":"tokenId","type":"uint256","indexed":true,"internalType":"uint256"},{"name":"claimant","type":"address","indexed":true,"internalType":"address"},{"name":"code","type":"string","indexed":false,"internalType":"string"}],"anonymous":false},{"type":"event","name":"OwnershipTransferred","inputs":[{"name":"previousOwner","type":"address","indexed":true,"internalType":"address"},{"name":"newOwner","type":"address","indexed":true,"internalType":"address"}],"anonymous":false},{"type":"event","name":"Transfer","inputs":[{"name":"from","type":"address","indexed":true,"internalType":"address"},{"name":"to","type":"address","indexed":true,"internalType":"address"},{"name":"tokenId","type":"uint256","indexed":true,"internalType":"uint256"}],"anonymous":false},{"type":"error","name":"ERC721IncorrectOwner","inputs":[{"name":"sender","type":"address","internalType":"address"},{"name":"tokenId","type":"uint256","internalType":"uint256"},{"name":"owner","type":"address","internalType":"address"}]},{"type":"error","name":"ERC721InsufficientApproval","inputs":[{"name":"operator","type":"address","internalType":"address"},{"name":"tokenId","type":"uint256","internalType":"uint256"}]},{"type":"error","name":"ERC721InvalidApprover","inputs":[{"name":"approver","type":"address","internalType":"address"}]},{"type":"error","name":"ERC721InvalidOperator","inputs":[{"name":"operator","type":"address","internalType":"address"}]},{"type":"error","name":"ERC721InvalidOwner","inputs":[{"name":"owner","type":"address","internalType":"address"}]},{"type":"error","name":"ERC721InvalidReceiver","inputs":[{"name":"receiver","type":"address","internalType":"address"}]},{"type":"error","name":"ERC721InvalidSender","inputs":[{"name":"sender","type":"address","internalType":"address"}]},{"type":"error","name":"ERC721NonexistentToken","inputs":[{"name":"tokenId","type":"uint256","internalType":"uint256"}]},{"type":"error","name":"Minter__AlreadyClaimed","inputs":[]},{"type":"error","name":"Minter__ArrayLengthMismatch","inputs":[]},{"type":"error","name":"Minter__CodeAlreadyUsed","inputs":[]},{"type":"error","name":"Minter__EmptyArray","inputs":[]},{"type":"error","name":"Minter__InvalidCode","inputs":[]},{"type":"error","name":"OwnableInvalidOwner","inputs":[{"name":"owner","type":"address","internalType":"address"}]},{"type":"error","name":"OwnableUnauthorizedAccount","inputs":[{"name":"account","type":"address","internalType":"address"}]}],"bytecode":{"object":"0x608060405234801561000f575f5ffd5b506040516133df3803806133df833981810160405281019061003191906102ec565b338282815f90816100429190610572565b5080600190816100529190610572565b5050505f73ffffffffffffffffffffffffffffffffffffffff168173ffffffffffffffffffffffffffffffffffffffff16036100c5575f6040517f1e4fbdf70000000000000000000000000000000000000000000000000000000081526004016100bc9190610680565b60405180910390fd5b6100d4816100dc60201b60201c565b505050610699565b5f60065f9054906101000a900473ffffffffffffffffffffffffffffffffffffffff1690508160065f6101000a81548173ffffffffffffffffffffffffffffffffffffffff021916908373ffffffffffffffffffffffffffffffffffffffff1602179055508173ffffffffffffffffffffffffffffffffffffffff168173ffffffffffffffffffffffffffffffffffffffff167f8be0079c531659141344cd1fd0a4f28419497f9722a3daafe3b4186f6b6457e060405160405180910390a35050565b5f604051905090565b5f5ffd5b5f5ffd5b5f5ffd5b5f5ffd5b5f601f19601f8301169050919050565b7f4e487b71000000000000000000000000000000000000000000000000000000005f52604160045260245ffd5b6101fe826101b8565b810181811067ffffffffffffffff8211171561021d5761021c6101c8565b5b80604052505050565b5f61022f61019f565b905061023b82826101f5565b919050565b5f67ffffffffffffffff82111561025a576102596101c8565b5b610263826101b8565b9050602081019050919050565b8281835e5f83830152505050565b5f61029061028b84610240565b610226565b9050828152602081018484840111156102ac576102ab6101b4565b5b6102b7848285610270565b509392505050565b5f82601f8301126102d3576102d26101b0565b5b81516102e384826020860161027e565b91505092915050565b5f5f60408385031215610302576103016101a8565b5b5f83015167ffffffffffffffff81111561031f5761031e6101ac565b5b61032b858286016102bf565b925050602083015167ffffffffffffffff81111561034c5761034b6101ac565b5b610358858286016102bf565b9150509250929050565b5f81519050919050565b7f4e487b71000000000000000000000000000000000000000000000000000000005f52602260045260245ffd5b5f60028204905060018216806103b057607f821691505b6020821081036103c3576103c261036c565b5b50919050565b5f819050815f5260205f209050919050565b5f6020601f8301049050919050565b5f82821b905092915050565b5f600883026104257fffffffffffffffffffffffffffffffffffffffffffffffffffffffffffffffff826103ea565b61042f86836103ea565b95508019841693508086168417925050509392505050565b5f819050919050565b5f819050919050565b5f61047361046e61046984610447565b610450565b610447565b9050919050565b5f819050919050565b61048c83610459565b6104a06104988261047a565b8484546103f6565b825550505050565b5f5f905090565b6104b76104a8565b6104c2818484610483565b505050565b5b818110156104e5576104da5f826104af565b6001810190506104c8565b5050565b601f82111561052a576104fb816103c9565b610504846103db565b81016020851015610513578190505b61052761051f856103db565b8301826104c7565b50505b505050565b5f82821c905092915050565b5f61054a5f198460080261052f565b1980831691505092915050565b5f610562838361053b565b9150826002028217905092915050565b61057b82610362565b67ffffffffffffffff811115610594576105936101c8565b5b61059e8254610399565b6105a98282856104e9565b5f60209050601f8311600181146105da575f84156105c8578287015190505b6105d28582610557565b865550610639565b601f1984166105e8866103c9565b5f5b8281101561060f578489015182556001820191506020850194506020810190506105ea565b8683101561062c5784890151610628601f89168261053b565b8355505b6001600288020188555050505b505050505050565b5f73ffffffffffffffffffffffffffffffffffffffff82169050919050565b5f61066a82610641565b9050919050565b61067a81610660565b82525050565b5f6020820190506106935f830184610671565b92915050565b612d39806106a65f395ff3fe608060405234801561000f575f5ffd5b5060043610610171575f3560e01c8063715018a6116100dc578063a22cb46511610095578063cc9d70711161006f578063cc9d707114610433578063d5fb06f014610463578063e985e9c514610493578063f2fde38b146104c357610171565b8063a22cb465146103cb578063b88d4fde146103e7578063c87b56dd1461040357610171565b8063715018a61461031957806375794a3c1461032357806381f52b6e146103415780638da5cb5b1461037157806395d89b411461038f5780639f9d903a146103ad57610171565b8063162094c41161012e578063162094c41461024957806323b872dd1461026557806342842e0e146102815780634548ea7f1461029d5780636352211e146102b957806370a08231146102e957610171565b806301ffc9a71461017557806306fdde03146101a5578063081812fc146101c3578063091dbbd7146101f3578063095ea7b3146102115780630c8d23561461022d575b5f5ffd5b61018f600480360381019061018a9190611e51565b6104df565b60405161019c9190611e96565b60405180910390f35b6101ad6105c0565b6040516101ba9190611f1f565b60405180910390f35b6101dd60048036038101906101d89190611f72565b61064f565b6040516101ea9190611fdc565b60405180910390f35b6101fb61066a565b6040516102089190612004565b60405180910390f35b61022b60048036038101906102269190612047565b610670565b005b61024760048036038101906102429190612293565b610686565b005b610263600480360381019061025e919061231b565b610980565b005b61027f600480360381019061027a9190612375565b6109b5565b005b61029b60048036038101906102969190612375565b610ab4565b005b6102b760048036038101906102b291906123c5565b610ad3565b005b6102d360048036038101906102ce9190611f72565b610c42565b6040516102e09190611fdc565b60405180910390f35b61030360048036038101906102fe9190612431565b610c53565b6040516103109190612004565b60405180910390f35b610321610d09565b005b61032b610d1c565b6040516103389190612004565b60405180910390f35b61035b6004803603810190610356919061231b565b610d22565b6040516103689190612004565b60405180910390f35b610379610d5a565b6040516103869190611fdc565b60405180910390f35b610397610d82565b6040516103a49190611f1f565b60405180910390f35b6103b5610e12565b6040516103c29190612004565b60405180910390f35b6103e560048036038101906103e09190612486565b610e1b565b005b61040160048036038101906103fc9190612562565b610e31565b005b61041d60048036038101906104189190611f72565b610e56565b60405161042a9190611f1f565b60405180910390f35b61044d60048036038101906104489190611f72565b610f01565b60405161045a9190612004565b60405180910390f35b61047d6004803603810190610478919061231b565b610f16565b60405161048a9190611e96565b60405180910390f35b6104ad60048036038101906104a891906125e2565b610f58565b6040516104ba9190611e96565b60405180910390f35b6104dd60048036038101906104d89190612431565b610fe6565b005b5f7f80ac58cd000000000000000000000000000000000000000000000000000000007bffffffffffffffffffffffffffffffffffffffffffffffffffffffff1916827bffffffffffffffffffffffffffffffffffffffffffffffffffffffff191614806105a957507f5b5e139f000000000000000000000000000000000000000000000000000000007bffffffffffffffffffffffffffffffffffffffffffffffffffffffff1916827bffffffffffffffffffffffffffffffffffffffffffffffffffffffff1916145b806105b957506105b88261106a565b5b9050919050565b60605f80546105ce9061264d565b80601f01602080910402602001604051908101604052809291908181526020018280546105fa9061264d565b80156106455780601f1061061c57610100808354040283529160200191610645565b820191905f5260205f20905b81548152906001019060200180831161062857829003601f168201915b5050505050905090565b5f610659826110d3565b5061066382611159565b9050919050565b600b5481565b610682828261067d611192565b611199565b5050565b61068e6111ab565b82600b8190555080518251146106d0576040517f743754f100000000000000000000000000000000000000000000000000000000815260040160405180910390fd5b5f82510361070a576040517f84643e6e00000000000000000000000000000000000000000000000000000000815260040160405180910390fd5b5f825167ffffffffffffffff81111561072657610725612089565b5b6040519080825280602002602001820160405280156107545781602001602082028036833780820191505090505b5090505f5f90505b835181101561093f5760075f8681526020019081526020015f208482815181106107895761078861267d565b5b602002602001015160405161079e91906126e4565b90815260200160405180910390205f9054906101000a900460ff16156107f0576040517f63ff151a00000000000000000000000000000000000000000000000000000000815260040160405180910390fd5b5f600c5490506108003082611232565b8382815181106108135761081261267d565b5b602002602001015160085f8381526020019081526020015f209081610838919061289a565b50600160075f8881526020019081526020015f2086848151811061085f5761085e61267d565b5b602002602001015160405161087491906126e4565b90815260200160405180910390205f6101000a81548160ff0219169083151502179055508060095f8881526020019081526020015f208684815181106108bd576108bc61267d565b5b60200260200101516040516108d291906126e4565b90815260200160405180910390208190555085600a5f8381526020019081526020015f20819055508083838151811061090e5761090d61267d565b5b602002602001018181525050600c5f81548092919061092c90612996565b919050555050808060010191505061075c565b50837feec157971218834ab33775c76ca45aad7584e9b9520169d4b0ce2d20805debd98285604051610972929190612b97565b60405180910390a250505050565b6109886111ab565b610991826110d3565b508060085f8481526020019081526020015f2090816109b0919061289a565b505050565b5f73ffffffffffffffffffffffffffffffffffffffff168273ffffffffffffffffffffffffffffffffffffffff1603610a25575f6040517f64a0ae92000000000000000000000000000000000000000000000000000000008152600401610a1c9190611fdc565b60405180910390fd5b5f610a388383610a33611192565b611325565b90508373ffffffffffffffffffffffffffffffffffffffff168173ffffffffffffffffffffffffffffffffffffffff1614610aae578382826040517f64283d7b000000000000000000000000000000000000000000000000000000008152600401610aa593929190612bcc565b60405180910390fd5b50505050565b610ace83838360405180602001604052805f815250610e31565b505050565b60075f8481526020019081526020015f2082604051610af291906126e4565b90815260200160405180910390205f9054906101000a900460ff16610b43576040517fb8b09e4800000000000000000000000000000000000000000000000000000000815260040160405180910390fd5b5f60095f8581526020019081526020015f2083604051610b6391906126e4565b90815260200160405180910390205490503073ffffffffffffffffffffffffffffffffffffffff16610b9482610c42565b73ffffffffffffffffffffffffffffffffffffffff1614610be1576040517f71536d1e00000000000000000000000000000000000000000000000000000000815260040160405180910390fd5b610bec308383611530565b8173ffffffffffffffffffffffffffffffffffffffff1681857f654aa403f69580cbba8c880967455fdc187adb40cf6dbfb0b2ee6ecbefe158c686604051610c349190611f1f565b60405180910390a450505050565b5f610c4c826110d3565b9050919050565b5f5f73ffffffffffffffffffffffffffffffffffffffff168273ffffffffffffffffffffffffffffffffffffffff1603610cc4575f6040517f89c62b64000000000000000000000000000000000000000000000000000000008152600401610cbb9190611fdc565b60405180910390fd5b60035f8373ffffffffffffffffffffffffffffffffffffffff1673ffffffffffffffffffffffffffffffffffffffff1681526020019081526020015f20549050919050565b610d116111ab565b610d1a5f611698565b565b600c5481565b6009602052815f5260405f20818051602081018201805184825260208301602085012081835280955050505050505f91509150505481565b5f60065f9054906101000a900473ffffffffffffffffffffffffffffffffffffffff16905090565b606060018054610d919061264d565b80601f0160208091040260200160405190810160405280929190818152602001828054610dbd9061264d565b8015610e085780601f10610ddf57610100808354040283529160200191610e08565b820191905f5260205f20905b815481529060010190602001808311610deb57829003601f168201915b5050505050905090565b5f600b54905090565b610e2d610e26611192565b838361175b565b5050565b610e3c8484846109b5565b610e50610e47611192565b858585856118c4565b50505050565b6060610e61826110d3565b5060085f8381526020019081526020015f208054610e7e9061264d565b80601f0160208091040260200160405190810160405280929190818152602001828054610eaa9061264d565b8015610ef55780601f10610ecc57610100808354040283529160200191610ef5565b820191905f5260205f20905b815481529060010190602001808311610ed857829003601f168201915b50505050509050919050565b600a602052805f5260405f205f915090505481565b6007602052815f5260405f20818051602081018201805184825260208301602085012081835280955050505050505f915091509054906101000a900460ff1681565b5f60055f8473ffffffffffffffffffffffffffffffffffffffff1673ffffffffffffffffffffffffffffffffffffffff1681526020019081526020015f205f8373ffffffffffffffffffffffffffffffffffffffff1673ffffffffffffffffffffffffffffffffffffffff1681526020019081526020015f205f9054906101000a900460ff16905092915050565b610fee6111ab565b5f73ffffffffffffffffffffffffffffffffffffffff168173ffffffffffffffffffffffffffffffffffffffff160361105e575f6040517f1e4fbdf70000000000000000000000000000000000000000000000000000000081526004016110559190611fdc565b60405180910390fd5b61106781611698565b50565b5f7f01ffc9a7000000000000000000000000000000000000000000000000000000007bffffffffffffffffffffffffffffffffffffffffffffffffffffffff1916827bffffffffffffffffffffffffffffffffffffffffffffffffffffffff1916149050919050565b5f5f6110de83611a70565b90505f73ffffffffffffffffffffffffffffffffffffffff168173ffffffffffffffffffffffffffffffffffffffff160361115057826040517f7e2732890000000000000000000000000000000000000000000000000000000081526004016111479190612004565b60405180910390fd5b80915050919050565b5f60045f8381526020019081526020015f205f9054906101000a900473ffffffffffffffffffffffffffffffffffffffff169050919050565b5f33905090565b6111a68383836001611aa9565b505050565b6111b3611192565b73ffffffffffffffffffffffffffffffffffffffff166111d1610d5a565b73ffffffffffffffffffffffffffffffffffffffff1614611230576111f4611192565b6040517f118cdaa70000000000000000000000000000000000000000000000000000000081526004016112279190611fdc565b60405180910390fd5b565b5f73ffffffffffffffffffffffffffffffffffffffff168273ffffffffffffffffffffffffffffffffffffffff16036112a2575f6040517f64a0ae920000000000000000000000000000000000000000000000000000000081526004016112999190611fdc565b60405180910390fd5b5f6112ae83835f611325565b90505f73ffffffffffffffffffffffffffffffffffffffff168173ffffffffffffffffffffffffffffffffffffffff1614611320575f6040517f73c6ac6e0000000000000000000000000000000000000000000000000000000081526004016113179190611fdc565b60405180910390fd5b505050565b5f5f61133084611a70565b90505f73ffffffffffffffffffffffffffffffffffffffff168373ffffffffffffffffffffffffffffffffffffffff161461137157611370818486611c68565b5b5f73ffffffffffffffffffffffffffffffffffffffff168173ffffffffffffffffffffffffffffffffffffffff16146113fc576113b05f855f5f611aa9565b600160035f8373ffffffffffffffffffffffffffffffffffffffff1673ffffffffffffffffffffffffffffffffffffffff1681526020019081526020015f205f82825403925050819055505b5f73ffffffffffffffffffffffffffffffffffffffff168573ffffffffffffffffffffffffffffffffffffffff161461147b57600160035f8773ffffffffffffffffffffffffffffffffffffffff1673ffffffffffffffffffffffffffffffffffffffff1681526020019081526020015f205f82825401925050819055505b8460025f8681526020019081526020015f205f6101000a81548173ffffffffffffffffffffffffffffffffffffffff021916908373ffffffffffffffffffffffffffffffffffffffff160217905550838573ffffffffffffffffffffffffffffffffffffffff168273ffffffffffffffffffffffffffffffffffffffff167fddf252ad1be2c89b69c2b068fc378daa952ba7f163c4a11628f55a4df523b3ef60405160405180910390a4809150509392505050565b5f73ffffffffffffffffffffffffffffffffffffffff168273ffffffffffffffffffffffffffffffffffffffff16036115a0575f6040517f64a0ae920000000000000000000000000000000000000000000000000000000081526004016115979190611fdc565b60405180910390fd5b5f6115ac83835f611325565b90505f73ffffffffffffffffffffffffffffffffffffffff168173ffffffffffffffffffffffffffffffffffffffff160361161e57816040517f7e2732890000000000000000000000000000000000000000000000000000000081526004016116159190612004565b60405180910390fd5b8373ffffffffffffffffffffffffffffffffffffffff168173ffffffffffffffffffffffffffffffffffffffff1614611692578382826040517f64283d7b00000000000000000000000000000000000000000000000000000000815260040161168993929190612bcc565b60405180910390fd5b50505050565b5f60065f9054906101000a900473ffffffffffffffffffffffffffffffffffffffff1690508160065f6101000a81548173ffffffffffffffffffffffffffffffffffffffff021916908373ffffffffffffffffffffffffffffffffffffffff1602179055508173ffffffffffffffffffffffffffffffffffffffff168173ffffffffffffffffffffffffffffffffffffffff167f8be0079c531659141344cd1fd0a4f28419497f9722a3daafe3b4186f6b6457e060405160405180910390a35050565b5f73ffffffffffffffffffffffffffffffffffffffff168273ffffffffffffffffffffffffffffffffffffffff16036117cb57816040517f5b08ba180000000000000000000000000000000000000000000000000000000081526004016117c29190611fdc565b60405180910390fd5b8060055f8573ffffffffffffffffffffffffffffffffffffffff1673ffffffffffffffffffffffffffffffffffffffff1681526020019081526020015f205f8473ffffffffffffffffffffffffffffffffffffffff1673ffffffffffffffffffffffffffffffffffffffff1681526020019081526020015f205f6101000a81548160ff0219169083151502179055508173ffffffffffffffffffffffffffffffffffffffff168373ffffffffffffffffffffffffffffffffffffffff167f17307eab39ab6107e8899845ad3d59bd9653f200f220920489ca2b5937696c31836040516118b79190611e96565b60405180910390a3505050565b5f8373ffffffffffffffffffffffffffffffffffffffff163b1115611a69578273ffffffffffffffffffffffffffffffffffffffff1663150b7a02868685856040518563ffffffff1660e01b81526004016119229493929190612c53565b6020604051808303815f875af192505050801561195d57506040513d601f19601f8201168201806040525081019061195a9190612cb1565b60015b6119de573d805f811461198b576040519150601f19603f3d011682016040523d82523d5f602084013e611990565b606091505b505f8151036119d657836040517f64a0ae920000000000000000000000000000000000000000000000000000000081526004016119cd9190611fdc565b60405180910390fd5b805160208201fd5b63150b7a0260e01b7bffffffffffffffffffffffffffffffffffffffffffffffffffffffff1916817bffffffffffffffffffffffffffffffffffffffffffffffffffffffff191614611a6757836040517f64a0ae92000000000000000000000000000000000000000000000000000000008152600401611a5e9190611fdc565b60405180910390fd5b505b5050505050565b5f60025f8381526020019081526020015f205f9054906101000a900473ffffffffffffffffffffffffffffffffffffffff169050919050565b8080611ae157505f73ffffffffffffffffffffffffffffffffffffffff168273ffffffffffffffffffffffffffffffffffffffff1614155b15611c13575f611af0846110d3565b90505f73ffffffffffffffffffffffffffffffffffffffff168373ffffffffffffffffffffffffffffffffffffffff1614158015611b5a57508273ffffffffffffffffffffffffffffffffffffffff168173ffffffffffffffffffffffffffffffffffffffff1614155b8015611b6d5750611b6b8184610f58565b155b15611baf57826040517fa9fbf51f000000000000000000000000000000000000000000000000000000008152600401611ba69190611fdc565b60405180910390fd5b8115611c1157838573ffffffffffffffffffffffffffffffffffffffff168273ffffffffffffffffffffffffffffffffffffffff167f8c5be1e5ebec7d5bd14f71427d1e84f3dd0314c0f7b2291e5b200ac8c7c3b92560405160405180910390a45b505b8360045f8581526020019081526020015f205f6101000a81548173ffffffffffffffffffffffffffffffffffffffff021916908373ffffffffffffffffffffffffffffffffffffffff16021790555050505050565b611c73838383611d2b565b611d26575f73ffffffffffffffffffffffffffffffffffffffff168373ffffffffffffffffffffffffffffffffffffffff1603611ce757806040517f7e273289000000000000000000000000000000000000000000000000000000008152600401611cde9190612004565b60405180910390fd5b81816040517f177e802f000000000000000000000000000000000000000000000000000000008152600401611d1d929190612cdc565b60405180910390fd5b505050565b5f5f73ffffffffffffffffffffffffffffffffffffffff168373ffffffffffffffffffffffffffffffffffffffff1614158015611de257508273ffffffffffffffffffffffffffffffffffffffff168473ffffffffffffffffffffffffffffffffffffffff161480611da35750611da28484610f58565b5b80611de157508273ffffffffffffffffffffffffffffffffffffffff16611dc983611159565b73ffffffffffffffffffffffffffffffffffffffff16145b5b90509392505050565b5f604051905090565b5f5ffd5b5f5ffd5b5f7fffffffff0000000000000000000000000000000000000000000000000000000082169050919050565b611e3081611dfc565b8114611e3a575f5ffd5b50565b5f81359050611e4b81611e27565b92915050565b5f60208284031215611e6657611e65611df4565b5b5f611e7384828501611e3d565b91505092915050565b5f8115159050919050565b611e9081611e7c565b82525050565b5f602082019050611ea95f830184611e87565b92915050565b5f81519050919050565b5f82825260208201905092915050565b8281835e5f83830152505050565b5f601f19601f8301169050919050565b5f611ef182611eaf565b611efb8185611eb9565b9350611f0b818560208601611ec9565b611f1481611ed7565b840191505092915050565b5f6020820190508181035f830152611f378184611ee7565b905092915050565b5f819050919050565b611f5181611f3f565b8114611f5b575f5ffd5b50565b5f81359050611f6c81611f48565b92915050565b5f60208284031215611f8757611f86611df4565b5b5f611f9484828501611f5e565b91505092915050565b5f73ffffffffffffffffffffffffffffffffffffffff82169050919050565b5f611fc682611f9d565b9050919050565b611fd681611fbc565b82525050565b5f602082019050611fef5f830184611fcd565b92915050565b611ffe81611f3f565b82525050565b5f6020820190506120175f830184611ff5565b92915050565b61202681611fbc565b8114612030575f5ffd5b50565b5f813590506120418161201d565b92915050565b5f5f6040838503121561205d5761205c611df4565b5b5f61206a85828601612033565b925050602061207b85828601611f5e565b9150509250929050565b5f5ffd5b7f4e487b71000000000000000000000000000000000000000000000000000000005f52604160045260245ffd5b6120bf82611ed7565b810181811067ffffffffffffffff821117156120de576120dd612089565b5b80604052505050565b5f6120f0611deb565b90506120fc82826120b6565b919050565b5f67ffffffffffffffff82111561211b5761211a612089565b5b602082029050602081019050919050565b5f5ffd5b5f5ffd5b5f67ffffffffffffffff82111561214e5761214d612089565b5b61215782611ed7565b9050602081019050919050565b828183375f83830152505050565b5f61218461217f84612134565b6120e7565b9050828152602081018484840111156121a05761219f612130565b5b6121ab848285612164565b509392505050565b5f82601f8301126121c7576121c6612085565b5b81356121d7848260208601612172565b91505092915050565b5f6121f26121ed84612101565b6120e7565b905080838252602082019050602084028301858111156122155761221461212c565b5b835b8181101561225c57803567ffffffffffffffff81111561223a57612239612085565b5b80860161224789826121b3565b85526020850194505050602081019050612217565b5050509392505050565b5f82601f83011261227a57612279612085565b5b813561228a8482602086016121e0565b91505092915050565b5f5f5f606084860312156122aa576122a9611df4565b5b5f6122b786828701611f5e565b935050602084013567ffffffffffffffff8111156122d8576122d7611df8565b5b6122e486828701612266565b925050604084013567ffffffffffffffff81111561230557612304611df8565b5b61231186828701612266565b9150509250925092565b5f5f6040838503121561233157612330611df4565b5b5f61233e85828601611f5e565b925050602083013567ffffffffffffffff81111561235f5761235e611df8565b5b61236b858286016121b3565b9150509250929050565b5f5f5f6060848603121561238c5761238b611df4565b5b5f61239986828701612033565b93505060206123aa86828701612033565b92505060406123bb86828701611f5e565b9150509250925092565b5f5f5f606084860312156123dc576123db611df4565b5b5f6123e986828701611f5e565b935050602084013567ffffffffffffffff81111561240a57612409611df8565b5b612416868287016121b3565b925050604061242786828701612033565b9150509250925092565b5f6020828403121561244657612445611df4565b5b5f61245384828501612033565b91505092915050565b61246581611e7c565b811461246f575f5ffd5b50565b5f813590506124808161245c565b92915050565b5f5f6040838503121561249c5761249b611df4565b5b5f6124a985828601612033565b92505060206124ba85828601612472565b9150509250929050565b5f67ffffffffffffffff8211156124de576124dd612089565b5b6124e782611ed7565b9050602081019050919050565b5f612506612501846124c4565b6120e7565b90508281526020810184848401111561252257612521612130565b5b61252d848285612164565b509392505050565b5f82601f83011261254957612548612085565b5b81356125598482602086016124f4565b91505092915050565b5f5f5f5f6080858703121561257a57612579611df4565b5b5f61258787828801612033565b945050602061259887828801612033565b93505060406125a987828801611f5e565b925050606085013567ffffffffffffffff8111156125ca576125c9611df8565b5b6125d687828801612535565b91505092959194509250565b5f5f604083850312156125f8576125f7611df4565b5b5f61260585828601612033565b925050602061261685828601612033565b9150509250929050565b7f4e487b71000000000000000000000000000000000000000000000000000000005f52602260045260245ffd5b5f600282049050600182168061266457607f821691505b60208210810361267757612676612620565b5b50919050565b7f4e487b71000000000000000000000000000000000000000000000000000000005f52603260045260245ffd5b5f81905092915050565b5f6126be82611eaf565b6126c881856126aa565b93506126d8818560208601611ec9565b80840191505092915050565b5f6126ef82846126b4565b915081905092915050565b5f819050815f5260205f209050919050565b5f6020601f8301049050919050565b5f82821b905092915050565b5f600883026127567fffffffffffffffffffffffffffffffffffffffffffffffffffffffffffffffff8261271b565b612760868361271b565b95508019841693508086168417925050509392505050565b5f819050919050565b5f61279b61279661279184611f3f565b612778565b611f3f565b9050919050565b5f819050919050565b6127b483612781565b6127c86127c0826127a2565b848454612727565b825550505050565b5f5f905090565b6127df6127d0565b6127ea8184846127ab565b505050565b5b8181101561280d576128025f826127d7565b6001810190506127f0565b5050565b601f82111561285257612823816126fa565b61282c8461270c565b8101602085101561283b578190505b61284f6128478561270c565b8301826127ef565b50505b505050565b5f82821c905092915050565b5f6128725f1984600802612857565b1980831691505092915050565b5f61288a8383612863565b9150826002028217905092915050565b6128a382611eaf565b67ffffffffffffffff8111156128bc576128bb612089565b5b6128c6825461264d565b6128d1828285612811565b5f60209050601f831160018114612902575f84156128f0578287015190505b6128fa858261287f565b865550612961565b601f198416612910866126fa565b5f5b8281101561293757848901518255600182019150602085019450602081019050612912565b868310156129545784890151612950601f891682612863565b8355505b6001600288020188555050505b505050505050565b7f4e487b71000000000000000000000000000000000000000000000000000000005f52601160045260245ffd5b5f6129a082611f3f565b91507fffffffffffffffffffffffffffffffffffffffffffffffffffffffffffffffff82036129d2576129d1612969565b5b600182019050919050565b5f81519050919050565b5f82825260208201905092915050565b5f819050602082019050919050565b612a0f81611f3f565b82525050565b5f612a208383612a06565b60208301905092915050565b5f602082019050919050565b5f612a42826129dd565b612a4c81856129e7565b9350612a57836129f7565b805f5b83811015612a87578151612a6e8882612a15565b9750612a7983612a2c565b925050600181019050612a5a565b5085935050505092915050565b5f81519050919050565b5f82825260208201905092915050565b5f819050602082019050919050565b5f82825260208201905092915050565b5f612ad782611eaf565b612ae18185612abd565b9350612af1818560208601611ec9565b612afa81611ed7565b840191505092915050565b5f612b108383612acd565b905092915050565b5f602082019050919050565b5f612b2e82612a94565b612b388185612a9e565b935083602082028501612b4a85612aae565b805f5b85811015612b855784840389528151612b668582612b05565b9450612b7183612b18565b925060208a01995050600181019050612b4d565b50829750879550505050505092915050565b5f6040820190508181035f830152612baf8185612a38565b90508181036020830152612bc38184612b24565b90509392505050565b5f606082019050612bdf5f830186611fcd565b612bec6020830185611ff5565b612bf96040830184611fcd565b949350505050565b5f81519050919050565b5f82825260208201905092915050565b5f612c2582612c01565b612c2f8185612c0b565b9350612c3f818560208601611ec9565b612c4881611ed7565b840191505092915050565b5f608082019050612c665f830187611fcd565b612c736020830186611fcd565b612c806040830185611ff5565b8181036060830152612c928184612c1b565b905095945050505050565b5f81519050612cab81611e27565b92915050565b5f60208284031215612cc657612cc5611df4565b5b5f612cd384828501612c9d565b91505092915050565b5f604082019050612cef5f830185611fcd565b612cfc6020830184611ff5565b939250505056fea26469706673582212207e52eb552759f491fa1c6c890bb0439f33a041c15d38d02ff1e40654675a80e164736f6c634300081c0033","linkReferences":{}},"methodIdentifiers":{"approve(address,uint256)":"095ea7b3","balanceOf(address)":"70a08231","batchMintWithCode(uint256,string[],string[])":"0c8d2356","claim(uint256,string,address)":"4548ea7f","claimedCodes(uint256,string)":"d5fb06f0","codeToTokenId(uint256,string)":"81f52b6e","currentEventId()":"091dbbd7","getApproved(uint256)":"081812fc","isApprovedForAll(address,address)":"e985e9c5","name()":"06fdde03","nextEventId()":"9f9d903a","nextTokenId()":"75794a3c","owner()":"8da5cb5b","ownerOf(uint256)":"6352211e","renounceOwnership()":"715018a6","safeTransferFrom(address,address,uint256)":"42842e0e","safeTransferFrom(address,address,uint256,bytes)":"b88d4fde","setApprovalForAll(address,bool)":"a22cb465","setTokenURI(uint256,string)":"162094c4","supportsInterface(bytes4)":"01ffc9a7","symbol()":"95d89b41","tokenToEvent(uint256)":"cc9d7071","tokenURI(uint256)":"c87b56dd","transferFrom(address,address,uint256)":"23b872dd","transferOwnership(address)":"f2fde38b"},"id":34}