{"abi":[{"type":"constructor","inputs":[],"stateMutability":"nonpayable"},{"type":"function","name":"balanceOf","inputs":[{"name":"account","type":"address","internalType":"address"},{"name":"id","type":"uint256","internalType":"uint256"}],"outputs":[{"name":"","type":"uint256","internalType":"uint256"}],"stateMutability":"view"},{"type":"function","name":"balanceOfBatch","inputs":[{"name":"accounts","type":"address[]","internalType":"address[]"},{"name":"ids","type":"uint256[]","internalType":"uint256[]"}],"outputs":[{"name":"","type":"uint256[]","internalType":"uint256[]"}],"stateMutability":"view"},{"type":"function","name":"claimFor","inputs":[{"name":"tokenId","type":"uint256","internalType":"uint256"},{"name":"claimer","type":"address","internalType":"address"},{"name":"signature","type":"bytes","internalType":"bytes"},{"name":"nonce","type":"bytes32","internalType":"bytes32"}],"outputs":[],"stateMutability":"nonpayable"},{"type":"function","name":"createTokenType","inputs":[{"name":"name","type":"string","internalType":"string"},{"name":"symbol","type":"string","internalType":"string"},{"name":"eventURI","type":"string","internalType":"string"},{"name":"maxSupply","type":"uint256","internalType":"uint256"}],"outputs":[{"name":"","type":"uint256","internalType":"uint256"}],"stateMutability":"nonpayable"},{"type":"function","name":"getTokenType","inputs":[{"name":"tokenId","type":"uint256","internalType":"uint256"}],"outputs":[{"name":"name","type":"string","internalType":"string"},{"name":"symbol","type":"string","internalType":"string"},{"name":"eventURI","type":"string","internalType":"string"},{"name":"maxSupply","type":"uint256","internalType":"uint256"},{"name":"totalMinted","type":"uint256","internalType":"uint256"}],"stateMutability":"view"},{"type":"function","name":"hasClaimed","inputs":[{"name":"","type":"uint256","internalType":"uint256"},{"name":"","type":"address","internalType":"address"}],"outputs":[{"name":"","type":"bool","internalType":"bool"}],"stateMutability":"view"},{"type":"function","name":"isApprovedForAll","inputs":[{"name":"account","type":"address","internalType":"address"},{"name":"operator","type":"address","internalType":"address"}],"outputs":[{"name":"","type":"bool","internalType":"bool"}],"stateMutability":"view"},{"type":"function","name":"mint","inputs":[{"name":"tokenId","type":"uint256","internalType":"uint256"},{"name":"amount","type":"uint256","internalType":"uint256"}],"outputs":[],"stateMutability":"nonpayable"},{"type":"function","name":"owner","inputs":[],"outputs":[{"name":"","type":"address","internalType":"address"}],"stateMutability":"view"},{"type":"function","name":"remainingSupply","inputs":[{"name":"tokenId","type":"uint256","internalType":"uint256"}],"outputs":[{"name":"","type":"uint256","internalType":"uint256"}],"stateMutability":"view"},{"type":"function","name":"renounceOwnership","inputs":[],"outputs":[],"stateMutability":"nonpayable"},{"type":"function","name":"safeBatchTransferFrom","inputs":[{"name":"from","type":"address","internalType":"address"},{"name":"to","type":"address","internalType":"address"},{"name":"ids","type":"uint256[]","internalType":"uint256[]"},{"name":"values","type":"uint256[]","internalType":"uint256[]"},{"name":"data","type":"bytes","internalType":"bytes"}],"outputs":[],"stateMutability":"nonpayable"},{"type":"function","name":"safeTransferFrom","inputs":[{"name":"from","type":"address","internalType":"address"},{"name":"to","type":"address","internalType":"address"},{"name":"id","type":"uint256","internalType":"uint256"},{"name":"value","type":"uint256","internalType":"uint256"},{"name":"data","type":"bytes","internalType":"bytes"}],"outputs":[],"stateMutability":"nonpayable"},{"type":"function","name":"setApprovalForAll","inputs":[{"name":"operator","type":"address","internalType":"address"},{"name":"approved","type":"bool","internalType":"bool"}],"outputs":[],"stateMutability":"nonpayable"},{"type":"function","name":"supportsInterface","inputs":[{"name":"interfaceId","type":"bytes4","internalType":"bytes4"}],"outputs":[{"name":"","type":"bool","internalType":"bool"}],"stateMutability":"view"},{"type":"function","name":"tokenTypeCounter","inputs":[],"outputs":[{"name":"","type":"uint256","internalType":"uint256"}],"stateMutability":"view"},{"type":"function","name":"tokenTypes","inputs":[{"name":"","type":"uint256","internalType":"uint256"}],"outputs":[{"name":"name","type":"string","internalType":"string"},{"name":"symbol","type":"string","internalType":"string"},{"name":"eventURI","type":"string","internalType":"string"},{"name":"maxSupply","type":"uint256","internalType":"uint256"},{"name":"totalMinted","type":"uint256","internalType":"uint256"}],"stateMutability":"view"},{"type":"function","name":"transferOwnership","inputs":[{"name":"newOwner","type":"address","internalType":"address"}],"outputs":[],"stateMutability":"nonpayable"},{"type":"function","name":"uri","inputs":[{"name":"tokenId","type":"uint256","internalType":"uint256"}],"outputs":[{"name":"","type":"string","internalType":"string"}],"stateMutability":"view"},{"type":"function","name":"usedNonces","inputs":[{"name":"","type":"bytes32","internalType":"bytes32"}],"outputs":[{"name":"","type":"bool","internalType":"bool"}],"stateMutability":"view"},{"type":"event","name":"ApprovalForAll","inputs":[{"name":"account","type":"address","indexed":true,"internalType":"address"},{"name":"operator","type":"address","indexed":true,"internalType":"address"},{"name":"approved","type":"bool","indexed":false,"internalType":"bool"}],"anonymous":false},{"type":"event","name":"NFTClaimed","inputs":[{"name":"tokenId","type":"uint256","indexed":true,"internalType":"uint256"},{"name":"claimer","type":"address","indexed":true,"internalType":"address"}],"anonymous":false},{"type":"event","name":"OwnershipTransferred","inputs":[{"name":"previousOwner","type":"address","indexed":true,"internalType":"address"},{"name":"newOwner","type":"address","indexed":true,"internalType":"address"}],"anonymous":false},{"type":"event","name":"TokenTypeCreated","inputs":[{"name":"tokenId","type":"uint256","indexed":true,"internalType":"uint256"},{"name":"name","type":"string","indexed":false,"internalType":"string"},{"name":"symbol","type":"string","indexed":false,"internalType":"string"},{"name":"eventURI","type":"string","indexed":false,"internalType":"string"},{"name":"maxSupply","type":"uint256","indexed":false,"internalType":"uint256"}],"anonymous":false},{"type":"event","name":"TransferBatch","inputs":[{"name":"operator","type":"address","indexed":true,"internalType":"address"},{"name":"from","type":"address","indexed":true,"internalType":"address"},{"name":"to","type":"address","indexed":true,"internalType":"address"},{"name":"ids","type":"uint256[]","indexed":false,"internalType":"uint256[]"},{"name":"values","type":"uint256[]","indexed":false,"internalType":"uint256[]"}],"anonymous":false},{"type":"event","name":"TransferSingle","inputs":[{"name":"operator","type":"address","indexed":true,"internalType":"address"},{"name":"from","type":"address","indexed":true,"internalType":"address"},{"name":"to","type":"address","indexed":true,"internalType":"address"},{"name":"id","type":"uint256","indexed":false,"internalType":"uint256"},{"name":"value","type":"uint256","indexed":false,"internalType":"uint256"}],"anonymous":false},{"type":"event","name":"URI","inputs":[{"name":"value","type":"string","indexed":false,"internalType":"string"},{"name":"id","type":"uint256","indexed":true,"internalType":"uint256"}],"anonymous":false},{"type":"error","name":"ECDSAInvalidSignature","inputs":[]},{"type":"error","name":"ECDSAInvalidSignatureLength","inputs":[{"name":"length","type":"uint256","internalType":"uint256"}]},{"type":"error","name":"ECDSAInvalidSignatureS","inputs":[{"name":"s","type":"bytes32","internalType":"bytes32"}]},{"type":"error","name":"ERC1155InsufficientBalance","inputs":[{"name":"sender","type":"address","internalType":"address"},{"name":"balance","type":"uint256","internalType":"uint256"},{"name":"needed","type":"uint256","internalType":"uint256"},{"name":"tokenId","type":"uint256","internalType":"uint256"}]},{"type":"error","name":"ERC1155InvalidApprover","inputs":[{"name":"approver","type":"address","internalType":"address"}]},{"type":"error","name":"ERC1155InvalidArrayLength","inputs":[{"name":"idsLength","type":"uint256","internalType":"uint256"},{"name":"valuesLength","type":"uint256","internalType":"uint256"}]},{"type":"error","name":"ERC1155InvalidOperator","inputs":[{"name":"operator","type":"address","internalType":"address"}]},{"type":"error","name":"ERC1155InvalidReceiver","inputs":[{"name":"receiver","type":"address","internalType":"address"}]},{"type":"error","name":"ERC1155InvalidSender","inputs":[{"name":"sender","type":"address","internalType":"address"}]},{"type":"error","name":"ERC1155MissingApprovalForAll","inputs":[{"name":"operator","type":"address","internalType":"address"},{"name":"owner","type":"address","internalType":"address"}]},{"type":"error","name":"OwnableInvalidOwner","inputs":[{"name":"owner","type":"address","internalType":"address"}]},{"type":"error","name":"OwnableUnauthorizedAccount","inputs":[{"name":"account","type":"address","internalType":"address"}]}],"bytecode":{"object":"0x6080346101315760208101906001600160401b0382118183101761011d575f9160405252600254600181811c91168015610113575b60208210146100ff57601f81116100b7575b505f60025533156100a45760038054336001600160a01b03198216811790925560405191906001600160a01b03167f8be0079c531659141344cd1fd0a4f28419497f9722a3daafe3b4186f6b6457e05f80a3611d2590816101368239f35b631e4fbdf760e01b5f525f60045260245ffd5b60025f52601f0160051c7f405787fa12a823e0f2b7631cc41b3ba8828b3321ca811111fa75cd3aa3bb5ace908101905b8181106100f45750610046565b5f81556001016100e7565b634e487b7160e01b5f52602260045260245ffd5b90607f1690610034565b634e487b7160e01b5f52604160045260245ffd5b5f80fdfe60806040526004361015610011575f80fd5b5f3560e01c8062fdd58e1461015357806301ffc9a71461014e5780630e89341c146101495780631b2ef1ca146101445780632eb2c2d61461013f57806333f6832a1461013a57806347fda41a146101355780634e1273f414610130578063715018a61461012b5780637668cff31461012657806376aed2e114610121578063873f6f9e1461011c5780638da5cb5b14610117578063a22cb46514610112578063d7edfd061461010d578063e985e9c514610108578063f242432a14610103578063f2fde38b146100fe578063f47c1c00146100f95763feb61724146100f4575f80fd5b610ed2565b610ca0565b610c1a565b610b14565b610ac4565b610a33565b610981565b610959565b61090a565b6108b0565b610893565b610838565b610779565b6106f4565b610698565b6104ed565b6102e7565b610288565b6101f6565b61019c565b600435906001600160a01b038216820361016e57565b5f80fd5b602435906001600160a01b038216820361016e57565b35906001600160a01b038216820361016e57565b3461016e57604036600319011261016e5760206101db6101ba610158565b6024355f525f835260405f209060018060a01b03165f5260205260405f2090565b54604051908152f35b6001600160e01b031981160361016e57565b3461016e57602036600319011261016e576020600435610215816101e4565b63ffffffff60e01b16636cdb3d1360e11b8114908115610253575b8115610242575b506040519015158152f35b6301ffc9a760e01b1490505f610237565b6303a24d0760e21b81149150610230565b805180835260209291819084018484015e5f828201840152601f01601f1916010190565b3461016e57602036600319011261016e57600435805f5260046020526102b6600360405f2001541515610f01565b5f5260046020526102e36102cf600260405f20016105b1565b604051918291602083526020830190610264565b0390f35b3461016e57604036600319011261016e57602435600435610306611512565b805f526004602052610320600360405f2001541515610f01565b805f526004602052600460405f2001548281018091116103c057815f526004602052600360405f200154106103865760046103796103829261036b610363610f6e565b86833361157f565b5f52600460205260405f2090565b01918254610f61565b9055005b60405162461bcd60e51b815260206004820152601260248201527145786365656473206d617820737570706c7960701b6044820152606490fd5b610f4d565b634e487b7160e01b5f52604160045260245ffd5b60a081019081106001600160401b038211176103f457604052565b6103c5565b90601f801991011681019081106001600160401b038211176103f457604052565b6001600160401b0381116103f45760051b60200190565b9080601f8301121561016e5781356104488161041a565b9261045660405194856103f9565b81845260208085019260051b82010192831161016e57602001905b82821061047e5750505090565b8135815260209182019101610471565b6001600160401b0381116103f457601f01601f191660200190565b81601f8201121561016e576020813591016104c38261048e565b926104d160405194856103f9565b8284528282011161016e57815f92602092838601378301015290565b3461016e5760a036600319011261016e57610506610158565b61050e610172565b906044356001600160401b03811161016e5761052e903690600401610431565b6064356001600160401b03811161016e5761054d903690600401610431565b90608435936001600160401b03851161016e576105716105779536906004016104a9565b93610f82565b005b90600182811c921680156105a7575b602083101461059357565b634e487b7160e01b5f52602260045260245ffd5b91607f1691610588565b9060405191825f8254926105c484610579565b808452936001811690811561062f57506001146105eb575b506105e9925003836103f9565b565b90505f9291925260205f20905f915b8183106106135750509060206105e9928201015f6105dc565b60209193508060019154838589010152019101909184926105fa565b9050602092506105e994915060ff191682840152151560051b8201015f6105dc565b919261068060809461067261068e949998979960a0875260a0870190610264565b908582036020870152610264565b908382036040850152610264565b9460608201520152565b3461016e57602036600319011261016e576004355f52600460205260405f206106c0816105b1565b6102e36106cf600184016105b1565b926106dc600282016105b1565b90600460038201549101549160405195869586610651565b3461016e57602036600319011261016e57600480355f908152602082905260409020600381015491015481039081116103c057602090604051908152f35b90602080835192838152019201905f5b81811061074f5750505090565b8251845260209384019390920191600101610742565b906020610776928181520190610732565b90565b3461016e57604036600319011261016e576004356001600160401b03811161016e573660238201121561016e578060040135906107b58261041a565b916107c360405193846103f9565b8083526024602084019160051b8301019136831161016e57602401905b82821061082057836024356001600160401b03811161016e576102e39161080e610814923690600401610431565b90611006565b60405191829182610765565b6020809161082d84610188565b8152019101906107e0565b3461016e575f36600319011261016e57610850611512565b600380546001600160a01b031981169091555f906001600160a01b03167f8be0079c531659141344cd1fd0a4f28419497f9722a3daafe3b4186f6b6457e08280a3005b3461016e575f36600319011261016e576020600754604051908152f35b3461016e57602036600319011261016e576004355f52600460205260405f2060038101546102e360048301546108e5846105b1565b926108fe60026108f7600188016105b1565b96016105b1565b60405195869586610651565b3461016e57604036600319011261016e57602060ff61094d60043561092d610172565b905f526005845260405f209060018060a01b03165f5260205260405f2090565b54166040519015158152f35b3461016e575f36600319011261016e576003546040516001600160a01b039091168152602090f35b3461016e57604036600319011261016e5761099a610158565b602435908115159081830361016e576001600160a01b038116928315610a21576109e26109f392335f52600160205260405f209060018060a01b03165f5260205260405f2090565b9060ff801983541691151516179055565b6040519081527f17307eab39ab6107e8899845ad3d59bd9653f200f220920489ca2b5937696c3160203392a3005b62ced3e160e81b5f525f60045260245ffd5b3461016e57608036600319011261016e576004356001600160401b03811161016e57610a639036906004016104a9565b6024356001600160401b03811161016e57610a829036906004016104a9565b90604435906001600160401b03821161016e576102e392610aaa610ab49336906004016104a9565b90606435926110ba565b6040519081529081906020820190565b3461016e57604036600319011261016e57602060ff61094d610ae4610158565b610aec610172565b6001600160a01b039182165f9081526001865260408082209290931681526020919091522090565b3461016e5760a036600319011261016e57610b2d610158565b610b35610172565b60443590606435926084356001600160401b03811161016e57610b5c9036906004016104a9565b926001600160a01b0382163381141580610bf7575b610be1576001600160a01b03841615610bce5715610bbc5761057794610bb460405192600184526020840152604083019160018352606084015260808301604052565b92909161172f565b626a0d4560e21b5f525f60045260245ffd5b632bfa23e760e11b5f525f60045260245ffd5b63711bec9160e11b5f523360045260245260445ffd5b505f81815260016020908152604080832033845290915290205460ff1615610b71565b3461016e57602036600319011261016e57610c33610158565b610c3b611512565b6001600160a01b03168015610c8d57600380546001600160a01b0319811683179091556001600160a01b03167f8be0079c531659141344cd1fd0a4f28419497f9722a3daafe3b4186f6b6457e05f80a3005b631e4fbdf760e01b5f525f60045260245ffd5b3461016e57608036600319011261016e57600435610cbc610172565b906044356001600160401b03811161016e57610cdf610e8b9136906004016104a9565b92610e7c610e61610e2f60643596610cf5611512565b610d156003610d0c895f52600460205260405f2090565b01541515610f01565b610d59610d54610d50610d4988610d348c5f52600560205260405f2090565b9060018060a01b03165f5260205260405f2090565b5460ff1690565b1590565b6113f9565b610d79610d74610d50610d498b5f52600660205260405f2090565b611445565b610dae6004610d90895f52600460205260405f2090565b01546003610da68a5f52600460205260405f2090565b015411611486565b610e2a87604051610dfa81610dec8d8b602084019687916054939183526bffffffffffffffffffffffff199060601b16602083015260348201520190565b03601f1981018352826103f9565b5190207f19457468657265756d205369676e6564204d6573736167653a0a3332000000005f52601c52603c5f2090565b6115bd565b6001600160a01b038481169791610e48911688146114d2565b610e6e610e6185610d34895f52600560205260405f2090565b805460ff19166001179055565b5f52600660205260405f2090565b82610e85610f6e565b91611539565b6004610e9f825f52600460205260405f2090565b01610eaa815461129e565b90557fec5f0dee1fc3c7beab746dbd5883eee3f1c9bc07fe02dd318c553c5243f52fea5f80a3005b3461016e57602036600319011261016e576004355f526006602052602060ff60405f2054166040519015158152f35b15610f0857565b60405162461bcd60e51b815260206004820152601960248201527f546f6b656e207479706520646f6573206e6f74206578697374000000000000006044820152606490fd5b634e487b7160e01b5f52601160045260245ffd5b919082018092116103c057565b60405190610f7d6020836103f9565b5f8252565b939291906001600160a01b0385163381141580610fbb575b610be1576001600160a01b03821615610bce5715610bbc576105e99461172f565b505f81815260016020908152604080832033845290915290205460ff1615610f9a565b8051821015610ff25760209160051b010190565b634e487b7160e01b5f52603260045260245ffd5b919091805183518082036110a55750508051906110228261041a565b9161103060405193846103f9565b80835261103f601f199161041a565b013660208401375f5b815181101561109e578061108d60019260051b60208082870101519189010151905f918252602082815260408084206001600160a01b03909316845291905290205490565b6110978286610fde565b5201611048565b5090925050565b635b05999160e01b5f5260045260245260445ffd5b92906110c4611512565b6110cf60075461129e565b9384600755604051926110e1846103d9565b8184526020840193838552604081018681526060820183815260808301915f8352895f52600460205260405f2093519788516001600160401b0381116103f4578b99611137826111318954610579565b896112ac565b602090601f83116001146111d957936111a87fc56e574f384462ba7b53ffa4b85d7354ffc19601894284de4b2c1fe9029cc58d9c9d979461119b856111c89c9b99966111b29660049a5f926111ce575b50508160011b915f199060031b1c19161790565b88555b51600188016112fb565b51600286016112fb565b51600384015551910155604051948594856113ba565b0390a290565b015190505f80611187565b90601f9c9796959493929c198d16916111f5885f5260205f2090565b925f5b81811061126757509360017fc56e574f384462ba7b53ffa4b85d7354ffc19601894284de4b2c1fe9029cc58d9e9f6111b2956111c89d9c9b9a98956111a8958360049c9a1061124f575b505050811b01885561119e565b01515f1960f88460031b161c191690555f8080611242565b93839597999b9d9f96989a9c9e506001602092939491839286015181550195019301908f9d9b9997959e9c9a9896949392916111f8565b5f1981146103c05760010190565b601f82116112b957505050565b5f5260205f20906020601f840160051c830193106112f1575b601f0160051c01905b8181106112e6575050565b5f81556001016112db565b90915081906112d2565b91909182516001600160401b0381116103f4576113228161131c8454610579565b846112ac565b6020601f82116001146113555781906113519394955f926111ce5750508160011b915f199060031b1c19161790565b9055565b601f19821690611368845f5260205f2090565b915f5b8181106113a25750958360019596971061138a575b505050811b019055565b01515f1960f88460031b161c191690555f8080611380565b9192602060018192868b01518155019401920161136b565b9493926113e66060936113d86113f49460808a5260808a0190610264565b9088820360208a0152610264565b908682036040880152610264565b930152565b1561140057565b60405162461bcd60e51b815260206004820152601f60248201527f416c726561647920636c61696d6564207468697320746f6b656e2074797065006044820152606490fd5b1561144c57565b60405162461bcd60e51b8152602060048201526012602482015271139bdb98d948185b1c9958591e481d5cd95960721b6044820152606490fd5b1561148d57565b60405162461bcd60e51b815260206004820152601d60248201527f416c6c204e465473206f662074686973207479706520636c61696d65640000006044820152606490fd5b156114d957565b60405162461bcd60e51b8152602060048201526011602482015270496e76616c6964207369676e617475726560781b6044820152606490fd5b6003546001600160a01b0316330361152657565b63118cdaa760e01b5f523360045260245ffd5b9091906001600160a01b03811615610bce5761157960016105e9949160405192600184526020840152604083019160018352606084015260808301604052565b916115d3565b919291906001600160a01b03821615610bce576105e99361157960405192600184526020840152604083019160018352606084015260808301604052565b610776916115ca91611905565b9092919261195d565b93929190805182519081810361171a5750506001600160a01b03851693841515935f5b835181101561164e5780868960019360051b602080828a010151918a01015192611624575b505050016115f6565b61164491610d3461163c925f525f60205260405f2090565b918254610f61565b90555f898161161b565b509390959460018351145f146116df576020838101518582015160408051928352928201525f9133917fc3d58168c5ae7397731d063d5bbf3d657854427343f4c083240f7aacaa2d0f629190a45b6116a7575b50505050565b80516001036116cf57906020806116c695930151910151915f33611bc4565b5f8080806116a1565b6116da935f33611a95565b6116c6565b5f6040517f4a39dc06d4c0dbc64b70af90fd698a233a518aa5d07e595d983b8c0526c8f7fb3391806117128989836119d9565b0390a461169c565b635b05999160e01b5f5260045260245260445ffd5b949392909193845182519081810361171a5750506001600160a01b038681169586151595918516801515939192905f5b8451811015611838578060051b90898988602080868b010151958c010151926117b7575b93600194611795575b5050500161175f565b6117ad91610d3461163c925f525f60205260405f2090565b90555f898161178c565b505090916117d08d610d34835f525f60205260405f2090565b54828110611801578291898f6117f8600197968f950391610d34855f525f60205260405f2090565b55909450611783565b6040516303dee4c560e01b81526001600160a01b038f16600482015260248101919091526044810183905260648101829052608490fd5b5091989593929790965060018851145f146118cb5760208881015186820151604080519283529282015233917fc3d58168c5ae7397731d063d5bbf3d657854427343f4c083240f7aacaa2d0f6291a45b611894575b5050505050565b84516001036118ba576020806118b09601519201519233611bc4565b5f8080808061188d565b6118c694919233611a95565b6118b0565b6040517f4a39dc06d4c0dbc64b70af90fd698a233a518aa5d07e595d983b8c0526c8f7fb3391806118fd898d836119d9565b0390a4611888565b81519190604183036119355761192e9250602082015190606060408401519301515f1a90611c62565b9192909190565b50505f9160029190565b6004111561194957565b634e487b7160e01b5f52602160045260245ffd5b6119668161193f565b8061196f575050565b6119788161193f565b6001810361198f5763f645eedf60e01b5f5260045ffd5b6119988161193f565b600281036119b3575063fce698f760e01b5f5260045260245ffd5b806119bf60039261193f565b146119c75750565b6335e2f38360e21b5f5260045260245ffd5b90916119f061077693604084526040840190610732565b916020818403910152610732565b9081602091031261016e5751610776816101e4565b6001600160a01b0391821681529116602082015260a0604082018190526107769491939192611a589291611a4a9190860190610732565b908482036060860152610732565b916080818403910152610264565b3d15611a90573d90611a778261048e565b91611a8560405193846103f9565b82523d5f602084013e565b606090565b9091949293853b611aa9575b505050505050565b602093611acb91604051968795869563bc197c8160e01b875260048701611a13565b03815f6001600160a01b0387165af15f9181611b5a575b50611b1c5750611af0611a66565b8051919082611b1557632bfa23e760e11b5f526001600160a01b03821660045260245ffd5b6020915001fd5b6001600160e01b0319166343e6837f60e01b01611b3f57505f8080808080611aa1565b632bfa23e760e11b5f526001600160a01b031660045260245ffd5b611b7d91925060203d602011611b84575b611b7581836103f9565b8101906119fe565b905f611ae2565b503d611b6b565b6001600160a01b039182168152911660208201526040810191909152606081019190915260a06080820181905261077692910190610264565b9091949293853b611bd757505050505050565b602093611bf991604051968795869563f23a6e6160e01b875260048701611b8b565b03815f6001600160a01b0387165af15f9181611c41575b50611c1e5750611af0611a66565b6001600160e01b031916630dc5919f60e01b01611b3f57505f8080808080611aa1565b611c5b91925060203d602011611b8457611b7581836103f9565b905f611c10565b91907f7fffffffffffffffffffffffffffffff5d576e7357a4501ddfe92f46681b20a08411611ce4579160209360809260ff5f9560405194855216868401526040830152606082015282805260015afa15611cd9575f516001600160a01b03811615611ccf57905f905f90565b505f906001905f90565b6040513d5f823e3d90fd5b5050505f916003919056fea2646970667358221220a901649034895737a4165a3207d8ba6704f51e15056f81b6d8fb566f2219680464736f6c634300081c0033","linkReferences":{}},"methodIdentifiers":{"balanceOf(address,uint256)":"00fdd58e","balanceOfBatch(address[],uint256[])":"4e1273f4","claimFor(uint256,address,bytes,bytes32)":"f47c1c00","createTokenType(string,string,string,uint256)":"d7edfd06","getTokenType(uint256)":"76aed2e1","hasClaimed(uint256,address)":"873f6f9e","isApprovedForAll(address,address)":"e985e9c5","mint(uint256,uint256)":"1b2ef1ca","owner()":"8da5cb5b","remainingSupply(uint256)":"47fda41a","renounceOwnership()":"715018a6","safeBatchTransferFrom(address,address,uint256[],uint256[],bytes)":"2eb2c2d6","safeTransferFrom(address,address,uint256,uint256,bytes)":"f242432a","setApprovalForAll(address,bool)":"a22cb465","supportsInterface(bytes4)":"01ffc9a7","tokenTypeCounter()":"7668cff3","tokenTypes(uint256)":"33f6832a","transferOwnership(address)":"f2fde38b","uri(uint256)":"0e89341c","usedNonces(bytes32)":"feb61724"},"id":40}