{"abi":[{"type":"constructor","inputs":[],"stateMutability":"nonpayable"},{"type":"function","name":"balanceOf","inputs":[{"name":"account","type":"address","internalType":"address"},{"name":"id","type":"uint256","internalType":"uint256"}],"outputs":[{"name":"","type":"uint256","internalType":"uint256"}],"stateMutability":"view"},{"type":"function","name":"balanceOfBatch","inputs":[{"name":"accounts","type":"address[]","internalType":"address[]"},{"name":"ids","type":"uint256[]","internalType":"uint256[]"}],"outputs":[{"name":"","type":"uint256[]","internalType":"uint256[]"}],"stateMutability":"view"},{"type":"function","name":"claimFor","inputs":[{"name":"tokenId","type":"uint256","internalType":"uint256"},{"name":"claimer","type":"address","internalType":"address"},{"name":"signature","type":"bytes","internalType":"bytes"},{"name":"nonce","type":"bytes32","internalType":"bytes32"}],"outputs":[],"stateMutability":"nonpayable"},{"type":"function","name":"createTokenType","inputs":[{"name":"name","type":"string","internalType":"string"},{"name":"symbol","type":"string","internalType":"string"},{"name":"eventURI","type":"string","internalType":"string"},{"name":"maxSupply","type":"uint256","internalType":"uint256"}],"outputs":[{"name":"","type":"uint256","internalType":"uint256"}],"stateMutability":"nonpayable"},{"type":"function","name":"getAllTokenTypes","inputs":[],"outputs":[{"name":"","type":"tuple[]","internalType":"struct MintNft.TokenType[]","components":[{"name":"name","type":"string","internalType":"string"},{"name":"symbol","type":"string","internalType":"string"},{"name":"eventURI","type":"string","internalType":"string"},{"name":"maxSupply","type":"uint256","internalType":"uint256"},{"name":"totalMinted","type":"uint256","internalType":"uint256"}]}],"stateMutability":"view"},{"type":"function","name":"getEventStats","inputs":[{"name":"tokenId","type":"uint256","internalType":"uint256"}],"outputs":[{"name":"maxSupply","type":"uint256","internalType":"uint256"},{"name":"totalMinted","type":"uint256","internalType":"uint256"},{"name":"remaining","type":"uint256","internalType":"uint256"}],"stateMutability":"view"},{"type":"function","name":"getTokenType","inputs":[{"name":"tokenId","type":"uint256","internalType":"uint256"}],"outputs":[{"name":"name","type":"string","internalType":"string"},{"name":"symbol","type":"string","internalType":"string"},{"name":"eventURI","type":"string","internalType":"string"},{"name":"maxSupply","type":"uint256","internalType":"uint256"},{"name":"totalMinted","type":"uint256","internalType":"uint256"}],"stateMutability":"view"},{"type":"function","name":"getTotalEvents","inputs":[],"outputs":[{"name":"","type":"uint256","internalType":"uint256"}],"stateMutability":"view"},{"type":"function","name":"hasClaimed","inputs":[{"name":"","type":"uint256","internalType":"uint256"},{"name":"","type":"address","internalType":"address"}],"outputs":[{"name":"","type":"bool","internalType":"bool"}],"stateMutability":"view"},{"type":"function","name":"hasUserClaimed","inputs":[{"name":"tokenId","type":"uint256","internalType":"uint256"},{"name":"user","type":"address","internalType":"address"}],"outputs":[{"name":"","type":"bool","internalType":"bool"}],"stateMutability":"view"},{"type":"function","name":"isApprovedForAll","inputs":[{"name":"account","type":"address","internalType":"address"},{"name":"operator","type":"address","internalType":"address"}],"outputs":[{"name":"","type":"bool","internalType":"bool"}],"stateMutability":"view"},{"type":"function","name":"mint","inputs":[{"name":"tokenId","type":"uint256","internalType":"uint256"},{"name":"amount","type":"uint256","internalType":"uint256"}],"outputs":[],"stateMutability":"nonpayable"},{"type":"function","name":"owner","inputs":[],"outputs":[{"name":"","type":"address","internalType":"address"}],"stateMutability":"view"},{"type":"function","name":"remainingSupply","inputs":[{"name":"tokenId","type":"uint256","internalType":"uint256"}],"outputs":[{"name":"","type":"uint256","internalType":"uint256"}],"stateMutability":"view"},{"type":"function","name":"renounceOwnership","inputs":[],"outputs":[],"stateMutability":"nonpayable"},{"type":"function","name":"safeBatchTransferFrom","inputs":[{"name":"from","type":"address","internalType":"address"},{"name":"to","type":"address","internalType":"address"},{"name":"ids","type":"uint256[]","internalType":"uint256[]"},{"name":"values","type":"uint256[]","internalType":"uint256[]"},{"name":"data","type":"bytes","internalType":"bytes"}],"outputs":[],"stateMutability":"nonpayable"},{"type":"function","name":"safeTransferFrom","inputs":[{"name":"from","type":"address","internalType":"address"},{"name":"to","type":"address","internalType":"address"},{"name":"id","type":"uint256","internalType":"uint256"},{"name":"value","type":"uint256","internalType":"uint256"},{"name":"data","type":"bytes","internalType":"bytes"}],"outputs":[],"stateMutability":"nonpayable"},{"type":"function","name":"setApprovalForAll","inputs":[{"name":"operator","type":"address","internalType":"address"},{"name":"approved","type":"bool","internalType":"bool"}],"outputs":[],"stateMutability":"nonpayable"},{"type":"function","name":"supportsInterface","inputs":[{"name":"interfaceId","type":"bytes4","internalType":"bytes4"}],"outputs":[{"name":"","type":"bool","internalType":"bool"}],"stateMutability":"view"},{"type":"function","name":"tokenTypeCounter","inputs":[],"outputs":[{"name":"","type":"uint256","internalType":"uint256"}],"stateMutability":"view"},{"type":"function","name":"tokenTypes","inputs":[{"name":"","type":"uint256","internalType":"uint256"}],"outputs":[{"name":"name","type":"string","internalType":"string"},{"name":"symbol","type":"string","internalType":"string"},{"name":"eventURI","type":"string","internalType":"string"},{"name":"maxSupply","type":"uint256","internalType":"uint256"},{"name":"totalMinted","type":"uint256","internalType":"uint256"}],"stateMutability":"view"},{"type":"function","name":"transferOwnership","inputs":[{"name":"newOwner","type":"address","internalType":"address"}],"outputs":[],"stateMutability":"nonpayable"},{"type":"function","name":"uri","inputs":[{"name":"tokenId","type":"uint256","internalType":"uint256"}],"outputs":[{"name":"","type":"string","internalType":"string"}],"stateMutability":"view"},{"type":"function","name":"usedNonces","inputs":[{"name":"","type":"bytes32","internalType":"bytes32"}],"outputs":[{"name":"","type":"bool","internalType":"bool"}],"stateMutability":"view"},{"type":"event","name":"ApprovalForAll","inputs":[{"name":"account","type":"address","indexed":true,"internalType":"address"},{"name":"operator","type":"address","indexed":true,"internalType":"address"},{"name":"approved","type":"bool","indexed":false,"internalType":"bool"}],"anonymous":false},{"type":"event","name":"NFTClaimed","inputs":[{"name":"tokenId","type":"uint256","indexed":true,"internalType":"uint256"},{"name":"claimer","type":"address","indexed":true,"internalType":"address"}],"anonymous":false},{"type":"event","name":"OwnershipTransferred","inputs":[{"name":"previousOwner","type":"address","indexed":true,"internalType":"address"},{"name":"newOwner","type":"address","indexed":true,"internalType":"address"}],"anonymous":false},{"type":"event","name":"TokenTypeCreated","inputs":[{"name":"tokenId","type":"uint256","indexed":true,"internalType":"uint256"},{"name":"name","type":"string","indexed":false,"internalType":"string"},{"name":"symbol","type":"string","indexed":false,"internalType":"string"},{"name":"eventURI","type":"string","indexed":false,"internalType":"string"},{"name":"maxSupply","type":"uint256","indexed":false,"internalType":"uint256"}],"anonymous":false},{"type":"event","name":"TransferBatch","inputs":[{"name":"operator","type":"address","indexed":true,"internalType":"address"},{"name":"from","type":"address","indexed":true,"internalType":"address"},{"name":"to","type":"address","indexed":true,"internalType":"address"},{"name":"ids","type":"uint256[]","indexed":false,"internalType":"uint256[]"},{"name":"values","type":"uint256[]","indexed":false,"internalType":"uint256[]"}],"anonymous":false},{"type":"event","name":"TransferSingle","inputs":[{"name":"operator","type":"address","indexed":true,"internalType":"address"},{"name":"from","type":"address","indexed":true,"internalType":"address"},{"name":"to","type":"address","indexed":true,"internalType":"address"},{"name":"id","type":"uint256","indexed":false,"internalType":"uint256"},{"name":"value","type":"uint256","indexed":false,"internalType":"uint256"}],"anonymous":false},{"type":"event","name":"URI","inputs":[{"name":"value","type":"string","indexed":false,"internalType":"string"},{"name":"id","type":"uint256","indexed":true,"internalType":"uint256"}],"anonymous":false},{"type":"error","name":"ECDSAInvalidSignature","inputs":[]},{"type":"error","name":"ECDSAInvalidSignatureLength","inputs":[{"name":"length","type":"uint256","internalType":"uint256"}]},{"type":"error","name":"ECDSAInvalidSignatureS","inputs":[{"name":"s","type":"bytes32","internalType":"bytes32"}]},{"type":"error","name":"ERC1155InsufficientBalance","inputs":[{"name":"sender","type":"address","internalType":"address"},{"name":"balance","type":"uint256","internalType":"uint256"},{"name":"needed","type":"uint256","internalType":"uint256"},{"name":"tokenId","type":"uint256","internalType":"uint256"}]},{"type":"error","name":"ERC1155InvalidApprover","inputs":[{"name":"approver","type":"address","internalType":"address"}]},{"type":"error","name":"ERC1155InvalidArrayLength","inputs":[{"name":"idsLength","type":"uint256","internalType":"uint256"},{"name":"valuesLength","type":"uint256","internalType":"uint256"}]},{"type":"error","name":"ERC1155InvalidOperator","inputs":[{"name":"operator","type":"address","internalType":"address"}]},{"type":"error","name":"ERC1155InvalidReceiver","inputs":[{"name":"receiver","type":"address","internalType":"address"}]},{"type":"error","name":"ERC1155InvalidSender","inputs":[{"name":"sender","type":"address","internalType":"address"}]},{"type":"error","name":"ERC1155MissingApprovalForAll","inputs":[{"name":"operator","type":"address","internalType":"address"},{"name":"owner","type":"address","internalType":"address"}]},{"type":"error","name":"OwnableInvalidOwner","inputs":[{"name":"owner","type":"address","internalType":"address"}]},{"type":"error","name":"OwnableUnauthorizedAccount","inputs":[{"name":"account","type":"address","internalType":"address"}]}],"bytecode":{"object":"0x6080346101315760208101906001600160401b0382118183101761011d575f9160405252600254600181811c91168015610113575b60208210146100ff57601f81116100b7575b505f60025533156100a45760038054336001600160a01b03198216811790925560405191906001600160a01b03167f8be0079c531659141344cd1fd0a4f28419497f9722a3daafe3b4186f6b6457e05f80a3611f8690816101368239f35b631e4fbdf760e01b5f525f60045260245ffd5b60025f52601f0160051c7f405787fa12a823e0f2b7631cc41b3ba8828b3321ca811111fa75cd3aa3bb5ace908101905b8181106100f45750610046565b5f81556001016100e7565b634e487b7160e01b5f52602260045260245ffd5b90607f1690610034565b634e487b7160e01b5f52604160045260245ffd5b5f80fdfe60806040526004361015610011575f80fd5b5f3560e01c8062fdd58e1461018957806301ffc9a71461018457806307c7a72d1461014d5780630e89341c1461017f5780631b2ef1ca1461017a57806325a19f04146101755780632eb2c2d61461017057806333f6832a1461016b57806347fda41a146101665780634e1273f4146101615780636160694014610157578063715018a61461015c5780637668cff31461015757806376aed2e114610152578063873f6f9e1461014d5780638da5cb5b14610148578063a22cb46514610143578063d7edfd061461013e578063e985e9c514610139578063f1e72a9614610134578063f242432a1461012f578063f2fde38b1461012a578063f47c1c00146101255763feb6172414610120575f80fd5b6110d4565b610ea2565b610e1c565b610d16565b610c39565b610b43565b610ab2565b610a00565b6109d8565b61029a565b61097e565b610906565b610923565b610847565b6107c2565b610766565b6105bb565b61044a565b61036c565b61030d565b61022c565b6101d2565b600435906001600160a01b03821682036101a457565b5f80fd5b602435906001600160a01b03821682036101a457565b35906001600160a01b03821682036101a457565b346101a45760403660031901126101a45760206102116101f061018e565b6024355f525f835260405f209060018060a01b03165f5260205260405f2090565b54604051908152f35b6001600160e01b03198116036101a457565b346101a45760203660031901126101a457602060043561024b8161021a565b63ffffffff60e01b16636cdb3d1360e11b8114908115610289575b8115610278575b506040519015158152f35b6301ffc9a760e01b1490505f61026d565b6303a24d0760e21b81149150610266565b346101a45760403660031901126101a457602060ff6102dd6004356102bd6101a8565b905f526005845260405f209060018060a01b03165f5260205260405f2090565b54166040519015158152f35b805180835260209291819084018484015e5f828201840152601f01601f1916010190565b346101a45760203660031901126101a457600435805f52600460205261033b600360405f2001541515611103565b5f526004602052610368610354600260405f200161067f565b6040519182916020835260208301906102e9565b0390f35b346101a45760403660031901126101a45760243560043561038b611773565b805f5260046020526103a5600360405f2001541515611103565b805f526004602052600460405f20015482810180911161044557815f526004602052600360405f2001541061040b5760046103fe610407926103f06103e8611170565b8683336117e0565b5f52600460205260405f2090565b01918254611163565b9055005b60405162461bcd60e51b815260206004820152601260248201527145786365656473206d617820737570706c7960701b6044820152606490fd5b61114f565b346101a45760203660031901126101a4576004355f52600460205260405f2060046003820154910154908181038181116104455760609260405192835260208301526040820152f35b634e487b7160e01b5f52604160045260245ffd5b60a081019081106001600160401b038211176104c257604052565b610493565b90601f801991011681019081106001600160401b038211176104c257604052565b6001600160401b0381116104c25760051b60200190565b9080601f830112156101a4578135610516816104e8565b9261052460405194856104c7565b81845260208085019260051b8201019283116101a457602001905b82821061054c5750505090565b813581526020918201910161053f565b6001600160401b0381116104c257601f01601f191660200190565b81601f820112156101a4576020813591016105918261055c565b9261059f60405194856104c7565b828452828201116101a457815f92602092838601378301015290565b346101a45760a03660031901126101a4576105d461018e565b6105dc6101a8565b906044356001600160401b0381116101a4576105fc9036906004016104ff565b6064356001600160401b0381116101a45761061b9036906004016104ff565b90608435936001600160401b0385116101a45761063f610645953690600401610577565b93611192565b005b90600182811c92168015610675575b602083101461066157565b634e487b7160e01b5f52602260045260245ffd5b91607f1691610656565b9060405191825f82549261069284610647565b80845293600181169081156106fd57506001146106b9575b506106b7925003836104c7565b565b90505f9291925260205f20905f915b8183106106e15750509060206106b7928201015f6106aa565b60209193508060019154838589010152019101909184926106c8565b9050602092506106b794915060ff191682840152151560051b8201015f6106aa565b919261074e60809461074061075c949998979960a0875260a08701906102e9565b9085820360208701526102e9565b9083820360408501526102e9565b9460608201520152565b346101a45760203660031901126101a4576004355f52600460205260405f2061078e8161067f565b61036861079d6001840161067f565b926107aa6002820161067f565b9060046003820154910154916040519586958661071f565b346101a45760203660031901126101a457600480355f9081526020829052604090206003810154910154810390811161044557602090604051908152f35b90602080835192838152019201905f5b81811061081d5750505090565b8251845260209384019390920191600101610810565b906020610844928181520190610800565b90565b346101a45760403660031901126101a4576004356001600160401b0381116101a457366023820112156101a457806004013590610883826104e8565b9161089160405193846104c7565b8083526024602084019160051b830101913683116101a457602401905b8282106108ee57836024356001600160401b0381116101a457610368916108dc6108e29236906004016104ff565b90611216565b60405191829182610833565b602080916108fb846101be565b8152019101906108ae565b346101a4575f3660031901126101a4576020600754604051908152f35b346101a4575f3660031901126101a45761093b611773565b600380546001600160a01b031981169091555f906001600160a01b03167f8be0079c531659141344cd1fd0a4f28419497f9722a3daafe3b4186f6b6457e08280a3005b346101a45760203660031901126101a4576004355f52600460205260405f20600381015461036860048301546109b38461067f565b926109cc60026109c56001880161067f565b960161067f565b6040519586958661071f565b346101a4575f3660031901126101a4576003546040516001600160a01b039091168152602090f35b346101a45760403660031901126101a457610a1961018e565b60243590811515908183036101a4576001600160a01b038116928315610aa057610a61610a7292335f52600160205260405f209060018060a01b03165f5260205260405f2090565b9060ff801983541691151516179055565b6040519081527f17307eab39ab6107e8899845ad3d59bd9653f200f220920489ca2b5937696c3160203392a3005b62ced3e160e81b5f525f60045260245ffd5b346101a45760803660031901126101a4576004356001600160401b0381116101a457610ae2903690600401610577565b6024356001600160401b0381116101a457610b01903690600401610577565b90604435906001600160401b0382116101a45761036892610b29610b33933690600401610577565b90606435926112ca565b6040519081529081906020820190565b346101a45760403660031901126101a457602060ff6102dd610b6361018e565b610b6b6101a8565b6001600160a01b039182165f9081526001865260408082209290931681526020919091522090565b602081016020825282518091526040820191602060408360051b8301019401925f915b838310610bc557505050505090565b9091929394602080600192603f19858203018652885190608080610c1a610c08610bf8865160a0875260a08701906102e9565b87870151868203898801526102e9565b604086015185820360408701526102e9565b9360608101516060850152015191015297019301930191939290610bb6565b346101a4575f3660031901126101a457600754610c55816104e8565b90610c6360405192836104c7565b808252601f19610c72826104e8565b015f5b818110610cde57505060015b81811115610c9757604051806103688582610b93565b80610cd3610cb0610cd9935f52600460205260405f2090565b610cc2610cbc84611184565b91611609565b610ccc82886111ee565b52856111ee565b506114ae565b610c81565b602090604051610ced816104a7565b60608152606083820152606060408201525f60608201525f608082015282828701015201610c75565b346101a45760a03660031901126101a457610d2f61018e565b610d376101a8565b60443590606435926084356001600160401b0381116101a457610d5e903690600401610577565b926001600160a01b0382163381141580610df9575b610de3576001600160a01b03841615610dd05715610dbe5761064594610db660405192600184526020840152604083019160018352606084015260808301604052565b929091611990565b626a0d4560e21b5f525f60045260245ffd5b632bfa23e760e11b5f525f60045260245ffd5b63711bec9160e11b5f523360045260245260445ffd5b505f81815260016020908152604080832033845290915290205460ff1615610d73565b346101a45760203660031901126101a457610e3561018e565b610e3d611773565b6001600160a01b03168015610e8f57600380546001600160a01b0319811683179091556001600160a01b03167f8be0079c531659141344cd1fd0a4f28419497f9722a3daafe3b4186f6b6457e05f80a3005b631e4fbdf760e01b5f525f60045260245ffd5b346101a45760803660031901126101a457600435610ebe6101a8565b906044356001600160401b0381116101a457610ee161108d913690600401610577565b9261107e61106361103160643596610ef7611773565b610f176003610f0e895f52600460205260405f2090565b01541515611103565b610f5b610f56610f52610f4b88610f368c5f52600560205260405f2090565b9060018060a01b03165f5260205260405f2090565b5460ff1690565b1590565b61165a565b610f7b610f76610f52610f4b8b5f52600660205260405f2090565b6116a6565b610fb06004610f92895f52600460205260405f2090565b01546003610fa88a5f52600460205260405f2090565b0154116116e7565b61102c87604051610ffc81610fee8d8b602084019687916054939183526bffffffffffffffffffffffff199060601b16602083015260348201520190565b03601f1981018352826104c7565b5190207f19457468657265756d205369676e6564204d6573736167653a0a3332000000005f52601c52603c5f2090565b61181e565b6001600160a01b03848116979161104a91168814611733565b61107061106385610f36895f52600560205260405f2090565b805460ff19166001179055565b5f52600660205260405f2090565b82611087611170565b9161179a565b60046110a1825f52600460205260405f2090565b016110ac81546114ae565b90557fec5f0dee1fc3c7beab746dbd5883eee3f1c9bc07fe02dd318c553c5243f52fea5f80a3005b346101a45760203660031901126101a4576004355f526006602052602060ff60405f2054166040519015158152f35b1561110a57565b60405162461bcd60e51b815260206004820152601960248201527f546f6b656e207479706520646f6573206e6f74206578697374000000000000006044820152606490fd5b634e487b7160e01b5f52601160045260245ffd5b9190820180921161044557565b6040519061117f6020836104c7565b5f8252565b5f1981019190821161044557565b939291906001600160a01b03851633811415806111cb575b610de3576001600160a01b03821615610dd05715610dbe576106b794611990565b505f81815260016020908152604080832033845290915290205460ff16156111aa565b80518210156112025760209160051b010190565b634e487b7160e01b5f52603260045260245ffd5b919091805183518082036112b5575050805190611232826104e8565b9161124060405193846104c7565b80835261124f601f19916104e8565b013660208401375f5b81518110156112ae578061129d60019260051b60208082870101519189010151905f918252602082815260408084206001600160a01b03909316845291905290205490565b6112a782866111ee565b5201611258565b5090925050565b635b05999160e01b5f5260045260245260445ffd5b92906112d4611773565b6112df6007546114ae565b9384600755604051926112f1846104a7565b8184526020840193838552604081018681526060820183815260808301915f8352895f52600460205260405f2093519788516001600160401b0381116104c2578b99611347826113418954610647565b896114bc565b602090601f83116001146113e957936113b87fc56e574f384462ba7b53ffa4b85d7354ffc19601894284de4b2c1fe9029cc58d9c9d97946113ab856113d89c9b99966113c29660049a5f926113de575b50508160011b915f199060031b1c19161790565b88555b516001880161150b565b516002860161150b565b51600384015551910155604051948594856115ca565b0390a290565b015190505f80611397565b90601f9c9796959493929c198d1691611405885f5260205f2090565b925f5b81811061147757509360017fc56e574f384462ba7b53ffa4b85d7354ffc19601894284de4b2c1fe9029cc58d9e9f6113c2956113d89d9c9b9a98956113b8958360049c9a1061145f575b505050811b0188556113ae565b01515f1960f88460031b161c191690555f8080611452565b93839597999b9d9f96989a9c9e506001602092939491839286015181550195019301908f9d9b9997959e9c9a989694939291611408565b5f1981146104455760010190565b601f82116114c957505050565b5f5260205f20906020601f840160051c83019310611501575b601f0160051c01905b8181106114f6575050565b5f81556001016114eb565b90915081906114e2565b91909182516001600160401b0381116104c2576115328161152c8454610647565b846114bc565b6020601f82116001146115655781906115619394955f926113de5750508160011b915f199060031b1c19161790565b9055565b601f19821690611578845f5260205f2090565b915f5b8181106115b25750958360019596971061159a575b505050811b019055565b01515f1960f88460031b161c191690555f8080611590565b9192602060018192868b01518155019401920161157b565b9493926115f66060936115e86116049460808a5260808a01906102e9565b9088820360208a01526102e9565b9086820360408801526102e9565b930152565b90604051611616816104a7565b6080600482946116258161067f565b84526116336001820161067f565b60208501526116446002820161067f565b6040850152600381015460608501520154910152565b1561166157565b60405162461bcd60e51b815260206004820152601f60248201527f416c726561647920636c61696d6564207468697320746f6b656e2074797065006044820152606490fd5b156116ad57565b60405162461bcd60e51b8152602060048201526012602482015271139bdb98d948185b1c9958591e481d5cd95960721b6044820152606490fd5b156116ee57565b60405162461bcd60e51b815260206004820152601d60248201527f416c6c204e465473206f662074686973207479706520636c61696d65640000006044820152606490fd5b1561173a57565b60405162461bcd60e51b8152602060048201526011602482015270496e76616c6964207369676e617475726560781b6044820152606490fd5b6003546001600160a01b0316330361178757565b63118cdaa760e01b5f523360045260245ffd5b9091906001600160a01b03811615610dd0576117da60016106b7949160405192600184526020840152604083019160018352606084015260808301604052565b91611834565b919291906001600160a01b03821615610dd0576106b7936117da60405192600184526020840152604083019160018352606084015260808301604052565b6108449161182b91611b66565b90929192611bbe565b93929190805182519081810361197b5750506001600160a01b03851693841515935f5b83518110156118af5780868960019360051b602080828a010151918a01015192611885575b50505001611857565b6118a591610f3661189d925f525f60205260405f2090565b918254611163565b90555f898161187c565b509390959460018351145f14611940576020838101518582015160408051928352928201525f9133917fc3d58168c5ae7397731d063d5bbf3d657854427343f4c083240f7aacaa2d0f629190a45b611908575b50505050565b8051600103611930579060208061192795930151910151915f33611e25565b5f808080611902565b61193b935f33611cf6565b611927565b5f6040517f4a39dc06d4c0dbc64b70af90fd698a233a518aa5d07e595d983b8c0526c8f7fb339180611973898983611c3a565b0390a46118fd565b635b05999160e01b5f5260045260245260445ffd5b949392909193845182519081810361197b5750506001600160a01b038681169586151595918516801515939192905f5b8451811015611a99578060051b90898988602080868b010151958c01015192611a18575b936001946119f6575b505050016119c0565b611a0e91610f3661189d925f525f60205260405f2090565b90555f89816119ed565b50509091611a318d610f36835f525f60205260405f2090565b54828110611a62578291898f611a59600197968f950391610f36855f525f60205260405f2090565b559094506119e4565b6040516303dee4c560e01b81526001600160a01b038f16600482015260248101919091526044810183905260648101829052608490fd5b5091989593929790965060018851145f14611b2c5760208881015186820151604080519283529282015233917fc3d58168c5ae7397731d063d5bbf3d657854427343f4c083240f7aacaa2d0f6291a45b611af5575b5050505050565b8451600103611b1b57602080611b119601519201519233611e25565b5f80808080611aee565b611b2794919233611cf6565b611b11565b6040517f4a39dc06d4c0dbc64b70af90fd698a233a518aa5d07e595d983b8c0526c8f7fb339180611b5e898d83611c3a565b0390a4611ae9565b8151919060418303611b9657611b8f9250602082015190606060408401519301515f1a90611ec3565b9192909190565b50505f9160029190565b60041115611baa57565b634e487b7160e01b5f52602160045260245ffd5b611bc781611ba0565b80611bd0575050565b611bd981611ba0565b60018103611bf05763f645eedf60e01b5f5260045ffd5b611bf981611ba0565b60028103611c14575063fce698f760e01b5f5260045260245ffd5b80611c20600392611ba0565b14611c285750565b6335e2f38360e21b5f5260045260245ffd5b9091611c5161084493604084526040840190610800565b916020818403910152610800565b908160209103126101a457516108448161021a565b6001600160a01b0391821681529116602082015260a0604082018190526108449491939192611cb99291611cab9190860190610800565b908482036060860152610800565b9160808184039101526102e9565b3d15611cf1573d90611cd88261055c565b91611ce660405193846104c7565b82523d5f602084013e565b606090565b9091949293853b611d0a575b505050505050565b602093611d2c91604051968795869563bc197c8160e01b875260048701611c74565b03815f6001600160a01b0387165af15f9181611dbb575b50611d7d5750611d51611cc7565b8051919082611d7657632bfa23e760e11b5f526001600160a01b03821660045260245ffd5b6020915001fd5b6001600160e01b0319166343e6837f60e01b01611da057505f8080808080611d02565b632bfa23e760e11b5f526001600160a01b031660045260245ffd5b611dde91925060203d602011611de5575b611dd681836104c7565b810190611c5f565b905f611d43565b503d611dcc565b6001600160a01b039182168152911660208201526040810191909152606081019190915260a060808201819052610844929101906102e9565b9091949293853b611e3857505050505050565b602093611e5a91604051968795869563f23a6e6160e01b875260048701611dec565b03815f6001600160a01b0387165af15f9181611ea2575b50611e7f5750611d51611cc7565b6001600160e01b031916630dc5919f60e01b01611da057505f8080808080611d02565b611ebc91925060203d602011611de557611dd681836104c7565b905f611e71565b91907f7fffffffffffffffffffffffffffffff5d576e7357a4501ddfe92f46681b20a08411611f45579160209360809260ff5f9560405194855216868401526040830152606082015282805260015afa15611f3a575f516001600160a01b03811615611f3057905f905f90565b505f906001905f90565b6040513d5f823e3d90fd5b5050505f916003919056fea26469706673582212203102d51b1591f086f5fdf8307ab8325b0ef13f24d9e65f32f373ff85044a921464736f6c634300081c0033","linkReferences":{}},"methodIdentifiers":{"balanceOf(address,uint256)":"00fdd58e","balanceOfBatch(address[],uint256[])":"4e1273f4","claimFor(uint256,address,bytes,bytes32)":"f47c1c00","createTokenType(string,string,string,uint256)":"d7edfd06","getAllTokenTypes()":"f1e72a96","getEventStats(uint256)":"25a19f04","getTokenType(uint256)":"76aed2e1","getTotalEvents()":"61606940","hasClaimed(uint256,address)":"873f6f9e","hasUserClaimed(uint256,address)":"07c7a72d","isApprovedForAll(address,address)":"e985e9c5","mint(uint256,uint256)":"1b2ef1ca","owner()":"8da5cb5b","remainingSupply(uint256)":"47fda41a","renounceOwnership()":"715018a6","safeBatchTransferFrom(address,address,uint256[],uint256[],bytes)":"2eb2c2d6","safeTransferFrom(address,address,uint256,uint256,bytes)":"f242432a","setApprovalForAll(address,bool)":"a22cb465","supportsInterface(bytes4)":"01ffc9a7","tokenTypeCounter()":"7668cff3","tokenTypes(uint256)":"33f6832a","transferOwnership(address)":"f2fde38b","uri(uint256)":"0e89341c","usedNonces(bytes32)":"feb61724"},"id":40}