{"abi":[{"type":"constructor","inputs":[{"name":"trustedForwarder","type":"address","internalType":"address"}],"stateMutability":"nonpayable"},{"type":"function","name":"balanceOf","inputs":[{"name":"account","type":"address","internalType":"address"},{"name":"id","type":"uint256","internalType":"uint256"}],"outputs":[{"name":"","type":"uint256","internalType":"uint256"}],"stateMutability":"view"},{"type":"function","name":"balanceOfBatch","inputs":[{"name":"accounts","type":"address[]","internalType":"address[]"},{"name":"ids","type":"uint256[]","internalType":"uint256[]"}],"outputs":[{"name":"","type":"uint256[]","internalType":"uint256[]"}],"stateMutability":"view"},{"type":"function","name":"claim","inputs":[{"name":"tokenId","type":"uint256","internalType":"uint256"},{"name":"signature","type":"bytes","internalType":"bytes"}],"outputs":[],"stateMutability":"nonpayable"},{"type":"function","name":"createTokenType","inputs":[{"name":"name","type":"string","internalType":"string"},{"name":"symbol","type":"string","internalType":"string"},{"name":"eventURI","type":"string","internalType":"string"},{"name":"maxSupply","type":"uint256","internalType":"uint256"}],"outputs":[{"name":"","type":"uint256","internalType":"uint256"}],"stateMutability":"nonpayable"},{"type":"function","name":"getAllTokenTypes","inputs":[],"outputs":[{"name":"","type":"tuple[]","internalType":"struct MintNft.TokenType[]","components":[{"name":"name","type":"string","internalType":"string"},{"name":"symbol","type":"string","internalType":"string"},{"name":"eventURI","type":"string","internalType":"string"},{"name":"maxSupply","type":"uint256","internalType":"uint256"},{"name":"totalMinted","type":"uint256","internalType":"uint256"},{"name":"eventNonce","type":"bytes32","internalType":"bytes32"}]}],"stateMutability":"view"},{"type":"function","name":"getEventStats","inputs":[{"name":"tokenId","type":"uint256","internalType":"uint256"}],"outputs":[{"name":"maxSupply","type":"uint256","internalType":"uint256"},{"name":"totalMinted","type":"uint256","internalType":"uint256"},{"name":"remaining","type":"uint256","internalType":"uint256"}],"stateMutability":"view"},{"type":"function","name":"getTokenType","inputs":[{"name":"tokenId","type":"uint256","internalType":"uint256"}],"outputs":[{"name":"name","type":"string","internalType":"string"},{"name":"symbol","type":"string","internalType":"string"},{"name":"eventURI","type":"string","internalType":"string"},{"name":"maxSupply","type":"uint256","internalType":"uint256"},{"name":"totalMinted","type":"uint256","internalType":"uint256"},{"name":"eventNonce","type":"bytes32","internalType":"bytes32"}],"stateMutability":"view"},{"type":"function","name":"getTotalEvents","inputs":[],"outputs":[{"name":"","type":"uint256","internalType":"uint256"}],"stateMutability":"view"},{"type":"function","name":"hasClaimed","inputs":[{"name":"","type":"uint256","internalType":"uint256"},{"name":"","type":"address","internalType":"address"}],"outputs":[{"name":"","type":"bool","internalType":"bool"}],"stateMutability":"view"},{"type":"function","name":"hasUserClaimed","inputs":[{"name":"tokenId","type":"uint256","internalType":"uint256"},{"name":"user","type":"address","internalType":"address"}],"outputs":[{"name":"","type":"bool","internalType":"bool"}],"stateMutability":"view"},{"type":"function","name":"isApprovedForAll","inputs":[{"name":"account","type":"address","internalType":"address"},{"name":"operator","type":"address","internalType":"address"}],"outputs":[{"name":"","type":"bool","internalType":"bool"}],"stateMutability":"view"},{"type":"function","name":"isTrustedForwarder","inputs":[{"name":"forwarder","type":"address","internalType":"address"}],"outputs":[{"name":"","type":"bool","internalType":"bool"}],"stateMutability":"view"},{"type":"function","name":"mint","inputs":[{"name":"tokenId","type":"uint256","internalType":"uint256"},{"name":"amount","type":"uint256","internalType":"uint256"}],"outputs":[],"stateMutability":"nonpayable"},{"type":"function","name":"owner","inputs":[],"outputs":[{"name":"","type":"address","internalType":"address"}],"stateMutability":"view"},{"type":"function","name":"remainingSupply","inputs":[{"name":"tokenId","type":"uint256","internalType":"uint256"}],"outputs":[{"name":"","type":"uint256","internalType":"uint256"}],"stateMutability":"view"},{"type":"function","name":"renounceOwnership","inputs":[],"outputs":[],"stateMutability":"nonpayable"},{"type":"function","name":"safeBatchTransferFrom","inputs":[{"name":"from","type":"address","internalType":"address"},{"name":"to","type":"address","internalType":"address"},{"name":"ids","type":"uint256[]","internalType":"uint256[]"},{"name":"values","type":"uint256[]","internalType":"uint256[]"},{"name":"data","type":"bytes","internalType":"bytes"}],"outputs":[],"stateMutability":"nonpayable"},{"type":"function","name":"safeTransferFrom","inputs":[{"name":"from","type":"address","internalType":"address"},{"name":"to","type":"address","internalType":"address"},{"name":"id","type":"uint256","internalType":"uint256"},{"name":"value","type":"uint256","internalType":"uint256"},{"name":"data","type":"bytes","internalType":"bytes"}],"outputs":[],"stateMutability":"nonpayable"},{"type":"function","name":"setApprovalForAll","inputs":[{"name":"operator","type":"address","internalType":"address"},{"name":"approved","type":"bool","internalType":"bool"}],"outputs":[],"stateMutability":"nonpayable"},{"type":"function","name":"supportsInterface","inputs":[{"name":"interfaceId","type":"bytes4","internalType":"bytes4"}],"outputs":[{"name":"","type":"bool","internalType":"bool"}],"stateMutability":"view"},{"type":"function","name":"tokenTypeCounter","inputs":[],"outputs":[{"name":"","type":"uint256","internalType":"uint256"}],"stateMutability":"view"},{"type":"function","name":"tokenTypes","inputs":[{"name":"","type":"uint256","internalType":"uint256"}],"outputs":[{"name":"name","type":"string","internalType":"string"},{"name":"symbol","type":"string","internalType":"string"},{"name":"eventURI","type":"string","internalType":"string"},{"name":"maxSupply","type":"uint256","internalType":"uint256"},{"name":"totalMinted","type":"uint256","internalType":"uint256"},{"name":"eventNonce","type":"bytes32","internalType":"bytes32"}],"stateMutability":"view"},{"type":"function","name":"transferOwnership","inputs":[{"name":"newOwner","type":"address","internalType":"address"}],"outputs":[],"stateMutability":"nonpayable"},{"type":"function","name":"trustedForwarder","inputs":[],"outputs":[{"name":"","type":"address","internalType":"address"}],"stateMutability":"view"},{"type":"function","name":"uri","inputs":[{"name":"tokenId","type":"uint256","internalType":"uint256"}],"outputs":[{"name":"","type":"string","internalType":"string"}],"stateMutability":"view"},{"type":"function","name":"usedNonces","inputs":[{"name":"","type":"bytes32","internalType":"bytes32"}],"outputs":[{"name":"","type":"bool","internalType":"bool"}],"stateMutability":"view"},{"type":"event","name":"ApprovalForAll","inputs":[{"name":"account","type":"address","indexed":true,"internalType":"address"},{"name":"operator","type":"address","indexed":true,"internalType":"address"},{"name":"approved","type":"bool","indexed":false,"internalType":"bool"}],"anonymous":false},{"type":"event","name":"NFTClaimed","inputs":[{"name":"tokenId","type":"uint256","indexed":true,"internalType":"uint256"},{"name":"claimer","type":"address","indexed":true,"internalType":"address"}],"anonymous":false},{"type":"event","name":"OwnershipTransferred","inputs":[{"name":"previousOwner","type":"address","indexed":true,"internalType":"address"},{"name":"newOwner","type":"address","indexed":true,"internalType":"address"}],"anonymous":false},{"type":"event","name":"TokenTypeCreated","inputs":[{"name":"tokenId","type":"uint256","indexed":true,"internalType":"uint256"},{"name":"name","type":"string","indexed":false,"internalType":"string"},{"name":"symbol","type":"string","indexed":false,"internalType":"string"},{"name":"eventURI","type":"string","indexed":false,"internalType":"string"},{"name":"maxSupply","type":"uint256","indexed":false,"internalType":"uint256"}],"anonymous":false},{"type":"event","name":"TransferBatch","inputs":[{"name":"operator","type":"address","indexed":true,"internalType":"address"},{"name":"from","type":"address","indexed":true,"internalType":"address"},{"name":"to","type":"address","indexed":true,"internalType":"address"},{"name":"ids","type":"uint256[]","indexed":false,"internalType":"uint256[]"},{"name":"values","type":"uint256[]","indexed":false,"internalType":"uint256[]"}],"anonymous":false},{"type":"event","name":"TransferSingle","inputs":[{"name":"operator","type":"address","indexed":true,"internalType":"address"},{"name":"from","type":"address","indexed":true,"internalType":"address"},{"name":"to","type":"address","indexed":true,"internalType":"address"},{"name":"id","type":"uint256","indexed":false,"internalType":"uint256"},{"name":"value","type":"uint256","indexed":false,"internalType":"uint256"}],"anonymous":false},{"type":"event","name":"URI","inputs":[{"name":"value","type":"string","indexed":false,"internalType":"string"},{"name":"id","type":"uint256","indexed":true,"internalType":"uint256"}],"anonymous":false},{"type":"error","name":"ECDSAInvalidSignature","inputs":[]},{"type":"error","name":"ECDSAInvalidSignatureLength","inputs":[{"name":"length","type":"uint256","internalType":"uint256"}]},{"type":"error","name":"ECDSAInvalidSignatureS","inputs":[{"name":"s","type":"bytes32","internalType":"bytes32"}]},{"type":"error","name":"ERC1155InsufficientBalance","inputs":[{"name":"sender","type":"address","internalType":"address"},{"name":"balance","type":"uint256","internalType":"uint256"},{"name":"needed","type":"uint256","internalType":"uint256"},{"name":"tokenId","type":"uint256","internalType":"uint256"}]},{"type":"error","name":"ERC1155InvalidApprover","inputs":[{"name":"approver","type":"address","internalType":"address"}]},{"type":"error","name":"ERC1155InvalidArrayLength","inputs":[{"name":"idsLength","type":"uint256","internalType":"uint256"},{"name":"valuesLength","type":"uint256","internalType":"uint256"}]},{"type":"error","name":"ERC1155InvalidOperator","inputs":[{"name":"operator","type":"address","internalType":"address"}]},{"type":"error","name":"ERC1155InvalidReceiver","inputs":[{"name":"receiver","type":"address","internalType":"address"}]},{"type":"error","name":"ERC1155InvalidSender","inputs":[{"name":"sender","type":"address","internalType":"address"}]},{"type":"error","name":"ERC1155MissingApprovalForAll","inputs":[{"name":"operator","type":"address","internalType":"address"},{"name":"owner","type":"address","internalType":"address"}]},{"type":"error","name":"OwnableInvalidOwner","inputs":[{"name":"owner","type":"address","internalType":"address"}]},{"type":"error","name":"OwnableUnauthorizedAccount","inputs":[{"name":"account","type":"address","internalType":"address"}]}],"bytecode":{"object":"0x60a06040523461019e57604051601f6123b638819003918201601f19168301916001600160401b0383118484101761018a5780849260209460405283398101031261019e57516001600160a01b038116810361019e5760405160208101906001600160401b0382118183101761018a575f9160405252600254600181811c91168015610180575b602082101461016c57601f8111610124575b505f60025533156101115760038054336001600160a01b0319821681179092556040519291906001600160a01b03167f8be0079c531659141344cd1fd0a4f28419497f9722a3daafe3b4186f6b6457e05f80a360805261221390816101a38239608051818181610be701528181610d080152611dc50152f35b631e4fbdf760e01b5f525f60045260245ffd5b60025f52601f0160051c7f405787fa12a823e0f2b7631cc41b3ba8828b3321ca811111fa75cd3aa3bb5ace908101905b8181106101615750610098565b5f8155600101610154565b634e487b7160e01b5f52602260045260245ffd5b90607f1690610086565b634e487b7160e01b5f52604160045260245ffd5b5f80fdfe60806040526004361015610011575f80fd5b5f3560e01c8062fdd58e146101a957806301ffc9a7146101a457806307c7a72d1461015e5780630e89341c1461019f5780631b2ef1ca1461019a57806325a19f04146101955780632eb2c2d61461019057806333f6832a1461018b57806338926b6d1461018657806347fda41a146101815780634e1273f41461017c578063572b6c0514610177578063616069401461016d578063715018a6146101725780637668cff31461016d57806376aed2e1146101685780637da0a87714610163578063873f6f9e1461015e5780638da5cb5b14610159578063a22cb46514610154578063d7edfd061461014f578063e985e9c51461014a578063f1e72a9614610145578063f242432a14610140578063f2fde38b1461013b5763feb6172414610136575f80fd5b61123e565b6111b8565b611097565b610fb4565b610eb4565b610e23565b610d5f565b610d37565b6102ba565b610cf3565b610c93565b610c1b565b610c38565b610bc7565b610b08565b610a83565b6107fa565b610799565b6105ec565b61046a565b61038c565b61032d565b61024c565b6101f2565b600435906001600160a01b03821682036101c457565b5f80fd5b602435906001600160a01b03821682036101c457565b35906001600160a01b03821682036101c457565b346101c45760403660031901126101c45760206102316102106101ae565b6024355f525f835260405f209060018060a01b03165f5260205260405f2090565b54604051908152f35b6001600160e01b03198116036101c457565b346101c45760203660031901126101c457602060043561026b8161023a565b63ffffffff60e01b16636cdb3d1360e11b81149081156102a9575b8115610298575b506040519015158152f35b6301ffc9a760e01b1490505f61028d565b6303a24d0760e21b81149150610286565b346101c45760403660031901126101c457602060ff6102fd6004356102dd6101c8565b905f526005845260405f209060018060a01b03165f5260205260405f2090565b54166040519015158152f35b805180835260209291819084018484015e5f828201840152601f01601f1916010190565b346101c45760203660031901126101c457600435805f52600460205261035b600360405f200154151561126d565b5f526004602052610388610374600260405f20016106b0565b604051918291602083526020830190610309565b0390f35b346101c45760403660031901126101c4576024356004356103ab611939565b805f5260046020526103c5600360405f200154151561126d565b805f526004602052600460405f20015482810180911161046557815f526004602052600360405f2001541061042b57600461041e610427926104106104086112da565b8683336119c6565b5f52600460205260405f2090565b019182546112cd565b9055005b60405162461bcd60e51b815260206004820152601260248201527145786365656473206d617820737570706c7960701b6044820152606490fd5b6112b9565b346101c45760203660031901126101c4576004355f52600460205260405f2060046003820154910154908181038181116104655760609260405192835260208301526040820152f35b634e487b7160e01b5f52604160045260245ffd5b60c081019081106001600160401b038211176104e257604052565b6104b3565b90601f801991011681019081106001600160401b038211176104e257604052565b6040519061051760c0836104e7565b565b6001600160401b0381116104e25760051b60200190565b9080601f830112156101c457813561054781610519565b9261055560405194856104e7565b81845260208085019260051b8201019283116101c457602001905b82821061057d5750505090565b8135815260209182019101610570565b6001600160401b0381116104e257601f01601f191660200190565b81601f820112156101c4576020813591016105c28261058d565b926105d060405194856104e7565b828452828201116101c457815f92602092838601378301015290565b346101c45760a03660031901126101c4576106056101ae565b61060d6101c8565b906044356001600160401b0381116101c45761062d903690600401610530565b6064356001600160401b0381116101c45761064c903690600401610530565b90608435936001600160401b0385116101c4576106706106769536906004016105a8565b936112fc565b005b90600182811c921680156106a6575b602083101461069257565b634e487b7160e01b5f52602260045260245ffd5b91607f1691610687565b9060405191825f8254926106c384610678565b808452936001811690811561072c57506001146106e8575b50610517925003836104e7565b90505f9291925260205f20905f915b818310610710575050906020610517928201015f6106db565b60209193508060019154838589010152019101909184926106f7565b90506020925061051794915060ff191682840152151560051b8201015f6106db565b9261077c60a0959897969361076e61078a9460c0885260c0880190610309565b908682036020880152610309565b908482036040860152610309565b95606083015260808201520152565b346101c45760203660031901126101c4576004355f52600460205260405f206107c1816106b0565b6103886107d0600184016106b0565b926107dd600282016106b0565b90600381015460056004830154920154926040519687968761074e565b346101c45760403660031901126101c4576024356004356001600160401b0382116101c457610a3c6108336109ab9336906004016105a8565b610a2d610a126109e0610844611d9a565b93610865600361085c895f52600460205260405f2090565b0154151561126d565b6108a96108a46108a0610899886108848c5f52600560205260405f2090565b9060018060a01b03165f5260205260405f2090565b5460ff1690565b1590565b611374565b6109db8760056108c1825f52600460205260405f2090565b01546108ce8115156113c0565b604080516020810184815260608b901b6bffffffffffffffffffffffff19169282019290925242605482015261091181607481015b03601f1981018352826104e7565b5190209a8b916109376109326108a0610899865f52600660205260405f2090565b611402565b61096c600461094e865f52600460205260405f2090565b01546003610964875f52600460205260405f2090565b015411611443565b6109036040519384928c6020850197889290916074949284526bffffffffffffffffffffffff199060601b166020840152603483015260548201520190565b5190207f19457468657265756d205369676e6564204d6573736167653a0a3332000000005f52601c52603c5f2090565b611a04565b6001600160a01b0384811697916109f99116881461148f565b610a1f610a1285610884895f52600560205260405f2090565b805460ff19166001179055565b5f52600660205260405f2090565b82610a366112da565b91611980565b6004610a50825f52600460205260405f2090565b01610a5b81546114cf565b90557fec5f0dee1fc3c7beab746dbd5883eee3f1c9bc07fe02dd318c553c5243f52fea5f80a3005b346101c45760203660031901126101c457600480355f9081526020829052604090206003810154910154810390811161046557602090604051908152f35b90602080835192838152019201905f5b818110610ade5750505090565b8251845260209384019390920191600101610ad1565b906020610b05928181520190610ac1565b90565b346101c45760403660031901126101c4576004356001600160401b0381116101c457366023820112156101c457806004013590610b4482610519565b91610b5260405193846104e7565b8083526024602084019160051b830101913683116101c457602401905b828210610baf57836024356001600160401b0381116101c45761038891610b9d610ba3923690600401610530565b90611505565b60405191829182610af4565b60208091610bbc846101de565b815201910190610b6f565b346101c45760203660031901126101c4576020610be26101ae565b6040517f00000000000000000000000000000000000000000000000000000000000000006001600160a01b039081169216919091148152f35b346101c4575f3660031901126101c4576020600754604051908152f35b346101c4575f3660031901126101c457610c50611939565b600380546001600160a01b031981169091555f906001600160a01b03167f8be0079c531659141344cd1fd0a4f28419497f9722a3daafe3b4186f6b6457e08280a3005b346101c45760203660031901126101c4576004355f52600460205260405f2060038101546103886004830154600584015490610cce856106b0565b93610ce76002610ce0600189016106b0565b97016106b0565b6040519687968761074e565b346101c4575f3660031901126101c4576040517f00000000000000000000000000000000000000000000000000000000000000006001600160a01b03168152602090f35b346101c4575f3660031901126101c4576003546040516001600160a01b039091168152602090f35b346101c45760403660031901126101c457610d786101ae565b60243590811515918281036101c457610d8f611d9a565b6001600160a01b038316939091908415610e1157610e08602092610df77f17307eab39ab6107e8899845ad3d59bd9653f200f220920489ca2b5937696c319560018060a01b031696875f526001865260405f209060018060a01b03165f5260205260405f2090565b9060ff801983541691151516179055565b604051908152a3005b62ced3e160e81b5f525f60045260245ffd5b346101c45760803660031901126101c4576004356001600160401b0381116101c457610e539036906004016105a8565b6024356001600160401b0381116101c457610e729036906004016105a8565b90604435906001600160401b0382116101c45761038892610e9a610ea49336906004016105a8565b90606435926115b9565b6040519081529081906020820190565b346101c45760403660031901126101c457602060ff6102fd610ed46101ae565b610edc6101c8565b6001600160a01b039182165f9081526001865260408082209290931681526020919091522090565b602081016020825282518091526040820191602060408360051b8301019401925f915b838310610f3657505050505090565b9091929394602080600192603f1985820301865288519060a080610f8b610f79610f69865160c0875260c0870190610309565b8787015186820389880152610309565b60408601518582036040870152610309565b936060810151606085015260808101516080850152015191015297019301930191939290610f27565b346101c4575f3660031901126101c457600754610fd081610519565b90610fde60405192836104e7565b808252601f19610fed82610519565b015f5b81811061105957505060015b8181111561101257604051806103888582610f04565b8061104e61102b611054935f52600460205260405f2090565b61103d611037846112ee565b916118de565b61104782886114dd565b52856114dd565b506114cf565b610ffc565b602090604051611068816104c7565b60608152606083820152606060408201525f60608201525f60808201525f60a082015282828701015201610ff0565b346101c45760a03660031901126101c4576110b06101ae565b6110b86101c8565b60443590606435926084356001600160401b0381116101c4576110df9036906004016105a8565b926110e8611d9a565b6001600160a01b03838116919081169082821415908161118a575b5061117557506001600160a01b038416156111625715611150576106769461114860405192600184526020840152604083019160018352606084015260808301604052565b929091611ba1565b626a0d4560e21b5f525f60045260245ffd5b632bfa23e760e11b5f525f60045260245ffd5b63711bec9160e11b5f5260045260245260445ffd5b5f8481526001602090815260408083206001600160a01b0390941683529290522060ff91505416155f611103565b346101c45760203660031901126101c4576111d16101ae565b6111d9611939565b6001600160a01b0316801561122b57600380546001600160a01b0319811683179091556001600160a01b03167f8be0079c531659141344cd1fd0a4f28419497f9722a3daafe3b4186f6b6457e05f80a3005b631e4fbdf760e01b5f525f60045260245ffd5b346101c45760203660031901126101c4576004355f526006602052602060ff60405f2054166040519015158152f35b1561127457565b60405162461bcd60e51b815260206004820152601960248201527f546f6b656e207479706520646f6573206e6f74206578697374000000000000006044820152606490fd5b634e487b7160e01b5f52601160045260245ffd5b9190820180921161046557565b604051906112e96020836104e7565b5f8252565b5f1981019190821161046557565b93929190611308611d9a565b6001600160a01b038681169190811690828214159081611346575b5061117557506001600160a01b0382161561116257156111505761051794611ba1565b5f8481526001602090815260408083206001600160a01b0390941683529290522060ff91505416155f611323565b1561137b57565b60405162461bcd60e51b815260206004820152601f60248201527f416c726561647920636c61696d6564207468697320746f6b656e2074797065006044820152606490fd5b156113c757565b60405162461bcd60e51b8152602060048201526013602482015272496e76616c6964206576656e74206e6f6e636560681b6044820152606490fd5b1561140957565b60405162461bcd60e51b8152602060048201526012602482015271139bdb98d948185b1c9958591e481d5cd95960721b6044820152606490fd5b1561144a57565b60405162461bcd60e51b815260206004820152601d60248201527f416c6c204e465473206f662074686973207479706520636c61696d65640000006044820152606490fd5b1561149657565b60405162461bcd60e51b8152602060048201526011602482015270496e76616c6964207369676e617475726560781b6044820152606490fd5b5f1981146104655760010190565b80518210156114f15760209160051b010190565b634e487b7160e01b5f52603260045260245ffd5b919091805183518082036115a457505080519061152182610519565b9161152f60405193846104e7565b80835261153e601f1991610519565b013660208401375f5b815181101561159d578061158c60019260051b60208082870101519189010151905f918252602082815260408084206001600160a01b03909316845291905290205490565b61159682866114dd565b5201611547565b5090925050565b635b05999160e01b5f5260045260245260445ffd5b907fc56e574f384462ba7b53ffa4b85d7354ffc19601894284de4b2c1fe9029cc58d916115e4611939565b6116746115f26007546114cf565b9586958660075561166860405160208101908982524260408201523360601b6060820152605481526116256074826104e7565b519020611630610508565b908682528760208301528360408301528460608301525f608083015260a0820152611663895f52600460205260405f2090565b611794565b6040519485948561189f565b0390a290565b601f821161168757505050565b5f5260205f20906020601f840160051c830193106116bf575b601f0160051c01905b8181106116b4575050565b5f81556001016116a9565b90915081906116a0565b91909182516001600160401b0381116104e2576116f0816116ea8454610678565b8461167a565b6020601f821160011461172f5781906117209394955f92611724575b50508160011b915f199060031b1c19161790565b9055565b015190505f8061170c565b601f19821690611742845f5260205f2090565b915f5b81811061177c57509583600195969710611764575b505050811b019055565b01515f1960f88460031b161c191690555f808061175a565b9192602060018192868b015181550194019201611745565b9080518051906001600160401b0382116104e2576117bc826117b68654610678565b8661167a565b602090601f8311600114611830578260a093600595936117f0935f926117245750508160011b915f199060031b1c19161790565b84555b6118046020820151600186016116c9565b6118156040820151600286016116c9565b60608101516003850155608081015160048501550151910155565b90601f19831691611844865f5260205f2090565b925f5b818110611887575092600192859260a096600598961061186f575b505050811b0184556117f3565b01515f1960f88460031b161c191690555f8080611862565b92936020600181928786015181550195019301611847565b9493926118cb6060936118bd6118d99460808a5260808a0190610309565b9088820360208a0152610309565b908682036040880152610309565b930152565b906040516118eb816104c7565b60a0600582946118fa816106b0565b8452611908600182016106b0565b6020850152611919600282016106b0565b604085015260038101546060850152600481015460808501520154910152565b6003546001600160a01b0390811690611950611d9a565b160361195857565b611960611d9a565b63118cdaa760e01b5f9081526001600160a01b0391909116600452602490fd5b9091906001600160a01b03811615611162576119c06001610517949160405192600184526020840152604083019160018352606084015260808301604052565b91611a1a565b919291906001600160a01b0382161561116257610517936119c060405192600184526020840152604083019160018352606084015260808301604052565b610b0591611a1191611df3565b90929192611e4b565b9093918451815190818103611b8c575050611a36939293611d9a565b936001600160a01b03831680151594905f5b8851811015611aa1578087878b60208060019660051b8093010151918a01015192611a77575b50505001611a48565b611a9791610884611a8f925f525f60205260405f2090565b9182546112cd565b90555f8781611a6e565b5090949196955f9060018851148214611b47576020888101518682015160408051928352928201526001600160a01b0392909216917fc3d58168c5ae7397731d063d5bbf3d657854427343f4c083240f7aacaa2d0f629190a45b611b06575b50505050565b611b0e611d9a565b9160018551145f14611b36575f602080611b2d970151930151936120b2565b5f808080611b00565b5f611b42959293611f83565b611b2d565b6040516001600160a01b03909116907f4a39dc06d4c0dbc64b70af90fd698a233a518aa5d07e595d983b8c0526c8f7fb9080611b84888c83611ec7565b0390a4611afb565b635b05999160e01b5f5260045260245260445ffd5b94939290918051825190818103611b8c57505093611bbd611d9a565b946001600160a01b03878116959085168015159391905f5b8451811015611cad578060051b906020808388010151928901015189888c611c2c575b93600194611c0a575b50505001611bd5565b611c2291610884611a8f925f525f60205260405f2090565b90555f8981611c01565b50509091611c458d610884835f525f60205260405f2090565b54828110611c76578291898f611c6d600197968f950391610884855f525f60205260405f2090565b55909450611bf8565b6040516303dee4c560e01b81526001600160a01b038f16600482015260248101919091526044810183905260648101829052608490fd5b5091989593929796909660018951145f14611d55576020898101518782015160408051928352928201526001600160a01b0392909216917fc3d58168c5ae7397731d063d5bbf3d657854427343f4c083240f7aacaa2d0f629190a45b611d15575b5050505050565b611d1d611d9a565b9260018651145f14611d4557602080611d3b970151930151936120b2565b5f80808080611d0e565b611d50959293611f83565b611d3b565b6040516001600160a01b03909116907f4a39dc06d4c0dbc64b70af90fd698a233a518aa5d07e595d983b8c0526c8f7fb9080611d92898d83611ec7565b0390a4611d09565b601436101580611dc1575b15611dbd5760131936013681116101c4573560601c90565b3390565b50337f00000000000000000000000000000000000000000000000000000000000000006001600160a01b031614611da5565b8151919060418303611e2357611e1c9250602082015190606060408401519301515f1a90612150565b9192909190565b50505f9160029190565b60041115611e3757565b634e487b7160e01b5f52602160045260245ffd5b611e5481611e2d565b80611e5d575050565b611e6681611e2d565b60018103611e7d5763f645eedf60e01b5f5260045ffd5b611e8681611e2d565b60028103611ea1575063fce698f760e01b5f5260045260245ffd5b80611ead600392611e2d565b14611eb55750565b6335e2f38360e21b5f5260045260245ffd5b9091611ede610b0593604084526040840190610ac1565b916020818403910152610ac1565b908160209103126101c45751610b058161023a565b6001600160a01b0391821681529116602082015260a060408201819052610b059491939192611f469291611f389190860190610ac1565b908482036060860152610ac1565b916080818403910152610309565b3d15611f7e573d90611f658261058d565b91611f7360405193846104e7565b82523d5f602084013e565b606090565b9091949293853b611f97575b505050505050565b602093611fb991604051968795869563bc197c8160e01b875260048701611f01565b03815f6001600160a01b0387165af15f9181612048575b5061200a5750611fde611f54565b805191908261200357632bfa23e760e11b5f526001600160a01b03821660045260245ffd5b6020915001fd5b6001600160e01b0319166343e6837f60e01b0161202d57505f8080808080611f8f565b632bfa23e760e11b5f526001600160a01b031660045260245ffd5b61206b91925060203d602011612072575b61206381836104e7565b810190611eec565b905f611fd0565b503d612059565b6001600160a01b039182168152911660208201526040810191909152606081019190915260a060808201819052610b0592910190610309565b9091949293853b6120c557505050505050565b6020936120e791604051968795869563f23a6e6160e01b875260048701612079565b03815f6001600160a01b0387165af15f918161212f575b5061210c5750611fde611f54565b6001600160e01b031916630dc5919f60e01b0161202d57505f8080808080611f8f565b61214991925060203d6020116120725761206381836104e7565b905f6120fe565b91907f7fffffffffffffffffffffffffffffff5d576e7357a4501ddfe92f46681b20a084116121d2579160209360809260ff5f9560405194855216868401526040830152606082015282805260015afa156121c7575f516001600160a01b038116156121bd57905f905f90565b505f906001905f90565b6040513d5f823e3d90fd5b5050505f916003919056fea26469706673582212206f4cb8935e31a6f716ade089b78fe9f51996bdec07944b952fe49e32fd488ba764736f6c634300081c0033","linkReferences":{}},"methodIdentifiers":{"balanceOf(address,uint256)":"00fdd58e","balanceOfBatch(address[],uint256[])":"4e1273f4","claim(uint256,bytes)":"38926b6d","createTokenType(string,string,string,uint256)":"d7edfd06","getAllTokenTypes()":"f1e72a96","getEventStats(uint256)":"25a19f04","getTokenType(uint256)":"76aed2e1","getTotalEvents()":"61606940","hasClaimed(uint256,address)":"873f6f9e","hasUserClaimed(uint256,address)":"07c7a72d","isApprovedForAll(address,address)":"e985e9c5","isTrustedForwarder(address)":"572b6c05","mint(uint256,uint256)":"1b2ef1ca","owner()":"8da5cb5b","remainingSupply(uint256)":"47fda41a","renounceOwnership()":"715018a6","safeBatchTransferFrom(address,address,uint256[],uint256[],bytes)":"2eb2c2d6","safeTransferFrom(address,address,uint256,uint256,bytes)":"f242432a","setApprovalForAll(address,bool)":"a22cb465","supportsInterface(bytes4)":"01ffc9a7","tokenTypeCounter()":"7668cff3","tokenTypes(uint256)":"33f6832a","transferOwnership(address)":"f2fde38b","trustedForwarder()":"7da0a877","uri(uint256)":"0e89341c","usedNonces(bytes32)":"feb61724"},"id":41}